:0200000280007C
:10000000503207202933080021330800213308002B
:1000100021330800213308002133080000000000CC
:100020000000000000000000000000002133080074
:1000300021330800000000002133080021330800AC
:100040002133080021330800213308002133080040
:100050002133080021330800213308002133080030
:100060001D1D08002133080000000000912F08002A
:10007000A92F0800C12F0800D92F08000000000098
:10008000000000002133080021330800213308005C
:1000900021330800213308002133080021330800F0
:1000A000213308000000000021330800550A080031
:1000B0002D0B0800050C0800390C0800510C080035
:1000C00021330800710C0800213308002133080097
:1000D00021330800213308002133080021330800B0
:1000E000213308002133080021330800B50108003E
:1000F0002133080010B5054C237833B9044B13B1F4
:100100000448AFF300800123237010BD6C0C07205E
:1001100000000000DC6A0800084B10B51BB108485D
:100120000849AFF300800848036803B910BD074BC6
:10013000002BFBD0BDE81040184700BF00000000B6
:10014000DC6A0800700C0720DC6A08000000000070
:1001500080B500AF074B9847074B084AC3F8E42027
:10016000054B074A1A61044B40F63F02C3F80021D1
:1001700080BD00BFCD29080000060E4000434D5051
:10018000007940F880B483B000AF0346FB710849A2
:1001900097F907305B09FA7902F01F02012000FA93
:1001A00002F241F823200C37BD465DF8047B70470E
:1001B00000E100E080B582B000AF114B1B697B60AD
:1001C0007B68DBB2002B17D00D4BD3F830327B604D
:1001D0007B6803F40003002B0ED00A4B01221A6047
:1001E000084A7B6893600748074B98470548074BC8
:1001F0009847074B01221A600837BD4680BD00BFF3
:1002000000400B40D00D07203904080015020800FB
:10021000980C072080B485B000AF78607B689B693C
:10022000784A1360774B5B78FB73764B5B78BB73D4
:10023000754B01221A70754B1B78002B00D0DCE047
:10024000734B1B78DBB21946724AFB7B5354704BDD
:100250001B78DBB21A466E4B1B78DBB219466D4B2E
:100260005B5CD9B26C4B9954694B1B78DBB21A4674
:10027000674B1B78DBB21946674B5B5CD9B2674BA7
:100280009954654B1B787B73654A7B7B13707B7B32
:10029000013B0C2B00F2AF8001A252F823F000BF0B
:1002A000190308003B03080065030800BF030800AA
:1002B000CD030800DB030800E9030800A3030800DE
:1002C000B10308008703080095030800D502080061
:1002D000F7020800534B00221A70534B1B889BB245
:1002E00001339AB2504B1A80504B01221A70474B7F
:1002F00000221A7080E04B4B00221A704A4B1B8878
:100300009BB201339AB2484B1A80484B01221A70B3
:100310003E4B00221A706FE0424B00221A70424B93
:100320001B889BB201339AB23F4B1A803F4B01228C
:100330001A70364B00221A705EE0324B5A883C4BE2
:100340001A80384B00221A70374B1B889BB201333E
:100350009AB2354B1A80354B01221A702B4B002272
:100360001A7049E02F4B00221A70324B1B889BB247
:1003700001339AB22F4B1A802C4B01221A70234B57
:1003800000221A7038E0294B01221A701F4B0022FC
:100390001A7031E0254B01221A701C4B00221A7092
:1003A0002AE0224B01221A70184B00221A7023E017
:1003B0001E4B01221A70154B00221A701CE01B4BB9
:1003C00001221A70114B00221A7015E0174B0122FE
:1003D0001A700E4B00221A700EE0144B01221A7094
:1003E0000A4B00221A7007E0104B01221A70074BCB
:1003F00000221A7000E000BF00BF1437BD465DF850
:10040000047B7047C40D0720930C0720880C07203D
:100410008E0C0720900C0720940C0720040E072058
:10042000C80D0720970C07208A0C0720F00D072025
:10043000CA0D07208C0C072080B487B000AF78600D
:1004400000237B617B681B68FB747B689B68FB6097
:10045000FB6803F40003002B06D0FB6803F08073F5
:10046000002B01D002237B61264AFB7C5B011344F5
:1004700003F502735B6823F060427B685A61FB6896
:1004800003F470231B0CDAB27B689A711D4AFB7C63
:100490005B01134403F504735A687B689A61194A37
:1004A000FB7C5B01134403F506731A687B68DA6111
:1004B000144AFB7C5B01134403F504731A687B68E0
:1004C0009A607B689B68FB60FB6803F08073002B7D
:1004D00003D07B6943F004037B610A49FB7C7A68A3
:1004E0009279120402F4702242F400025B010B4480
:1004F00003F506735A607B6918461C37BD465DF8E4
:10050000047B704700400B4080B485B000AF78603A
:100510007B681B68FB737B681B79002B2ED1344AE8
:10052000FB7B10335B01134400221A60304AFB7BD3
:1005300010335B01134400225A602D4AFB7B5B01A0
:10054000134403F5027300221A60294AFB7B5B0106
:10055000134403F5047300225A60254AFB7B5B01B8
:10056000134403F5067300221A60214AFB7B5B01EA
:10057000134403F5067300225A6034E01C48FB7BE9
:100580001B49FA7B103252010A44126822F470228D
:100590007968C97909040A4310335B0103441A607E
:1005A0001349FB7B7A68D26810335B010B445A60B5
:1005B0000F49FB7B7A6812695B010B4403F50273F8
:1005C0001A600B48FB7B0A49FA7B103252010A443D
:1005D000126822F0E0627968097909060A4310334B
:1005E0005B0103441A601437BD465DF8047B704715
:1005F00000400B4080B58EB000AF4B4BBB62782300
:1006000087F82730494B4A4AC3F8E420474A474B0A
:100610001B6823F0010313604449BB6ADB78013B8C
:1006200003F00702BB6A9B78013B1B0103F07003D8
:100630001A43BB6A5B78013B1B0203F4E0631A4375
:10064000BB6A1B79013B1B0303F440531A4397F821
:100650002730013B1B0403F4FE0313434B610023CB
:100660003B72002387F82F300BE097F82F307B6028
:100670003B1D18462F4B984797F82F30013387F8CA
:100680002F3097F82F30072BEFD9284A274B1B68BC
:1006900043F00103136000237B6300233B6305E009
:1006A000224B1B697B633B6B01333B637B6B03F426
:1006B0000013002B03D13B6B1F4A9342F0D91F4B11
:1006C00001221A601D4B01221A711C4B0022DA71A3
:1006D0001A4B00225A71194B194ADA60174B4FF422
:1006E00000221A611548134B98472B20154B984749
:1006F0000E4B02225A60114B00221A600F4B03224C
:100700001A710E4B0122DA710C4B00225A710B4BFD
:100710000B4ADA60094B4FF420121A610748054B67
:1007200098473837BD4680BDEC69080000400B4053
:10073000004E4143090508009F860100D00D0720A7
:100740000000FC1F8501080080B582B000AF0346A1
:10075000FB71184B40F64122C3F88C22154B4FF425
:10076000E062C3F88422134B40F64122C3F8AC2266
:10077000104B4FF4E062C3F8A422FB79012B02D0A6
:10078000022B09D011E00B4B10225A6055204FF07C
:100790008051094B984708E0064B20225A605620AA
:1007A0004FF08051044B984700BF0023184608378C
:1007B000BD4680BD00400940C92C080090B589B0F5
:1007C00000AF03460A46FB711346BB710023FB6171
:1007D000BB79DB011F4A92FBF3F35A1E1E4B1046F6
:1007E000984702460B46C7E904231C4BD7E904018E
:1007F00098470346FB60FB79042B26D801A252F8E8
:1008000023F000BF1908080027080800390808006D
:100810003F080800450808001148F9692122FB68D3
:10082000104CA04712E0BB79FB600F4800211B224F
:10083000FB680E4CA04709E0BB79FB6006E0BB7982
:10084000FB6003E0BB79FB6000E000BF1846243783
:10085000BD4690BD00BD01055D390800293A08007C
:10086000008008400D1008000000084069100800D2
:1008700080B582B000AF0346FB71FB79042B26D80C
:1008800001A252F823F000BF9D080800A708080045
:10089000B1080800BB080800C50808000E48002180
:1008A0000E4B984714E00C4801210C4B98470FE081
:1008B0000B480021094B98470AE00A480021074BE2
:1008C000984705E007480121044B984700E000BF26
:1008D00018460837BD4680BD00000840F5130800E3
:1008E000008008400040084080B500AF0B203B4B23
:1008F00098470C20394B98470D20384B98470E20CD
:10090000364B9847364B374AC3F8E420364B354AC6
:10091000C3F8E420354B334AC3F8E420344B314A62
:10092000C3F8E4202E4B4FF4C0225A662C4B314AB8
:100930005A602B4B4FF410221A67294B4FF4407228
:100940005A66274B4FF440725A66254B2A4A1A6062
:10095000234B2A4A1A61224B4FF4C0121A63204BD0
:100960004FF440425A61204B254A1A601E4B244ADC
:100970001A611D4B234A5A601B4B234A1A631A4BB8
:100980004FF080625A63194B204A1A60174B204A75
:100990001A61164B4FF0A0625A61144B1D4A5A63FC
:1009A000124B4FF400025A63114B41F610621A6069
:1009B0000F4B6F221A610E4B0F225A6601204FF027
:1009C0000061154B984700204FF00061124B98478B
:1009D00003201249104B984780BD00BF65320800C4
:1009E000000E0E40004F495000100E4000120E4005
:1009F00000140E404303871F04C0180004001800B1
:100A000000402008FF0018F000402006FEF18F0D86
:100A1000FEF18F00FEF10F06C92C08000100003026
:100A200080B483B000AF0346FB71094997F90730E2
:100A30005B09FA7902F01F02012000FA02F260332A
:100A400041F823200C37BD465DF8047B704700BF9A
:100A500000E100E080B500AF2B4B2C4AC3F8E42046
:100A60002B4B2A4AC3F8E420274B0322C3F8A020CB
:100A7000254B0C22C3F8A420254B4FF4FF72C3F87A
:100A8000A020234B4FF47F22C3F8A420214B1B68E6
:100A90000133204A1360204B1B6801331E4A136048
:100AA0001E4B1B6801331D4A13601A4B1B683F2BFA
:100AB0000ED8154A174B1B68194951F83330936308
:100AC000134A144B1B681649DB000B445B689363A5
:100AD000104B1B683F2B11D90E4B00221A600A4A9B
:100AE0000C4B1B680E4951F833309363084A094B8D
:100AF0001B680B49DB000B445B68936309480021CA
:100B0000094B984780BD00BF00140E40004F49506C
:100B100000120E40CC0C0720A00C0720A80C0720C8
:100B200000000720000008406114080080B500AFF5
:100B30002B4B2C4AC3F8E4202B4B2A4AC3F8E42061
:100B4000274B0C22C3F8A020254B0322C3F8A42076
:100B5000254B4FF47F22C3F8A020234B4FF4FF72A4
:100B6000C3F8A420214B1B680133204A1360204B9B
:100B70001B6801331E4A13601E4B1B6801331D4A5C
:100B800013601A4B1B683F2B0ED8154A174B1B6876
:100B9000194951F833309363134A144B1B681649B3
:100BA000DB000B445B689363104B1B683F2B11D930
:100BB0000E4B00221A600A4A0C4B1B680E4951F872
:100BC00033309363084A094B1B680B49DB000B4425
:100BD0005B68936309480121094B984780BD00BFBA
:100BE00000140E40004F495000120E40D00C072058
:100BF000A40C0720AC0C07200002072000000840CE
:100C00006114080080B500AF07480021074B9847E2
:100C100005480121054B9847054B00221A700248F0
:100C20000221044B984780BD00000840F5130800DE
:100C30009C0C07206114080080B500AF0248002119
:100C4000024B984780BD00BF004008406114080077
:100C500080B500AF034B01221A7003480421034BF7
:100C6000984780BDB00C07200000084061140800C0
:100C700080B500AF2120294B9847294B1B680133D1
:100C8000274A1360264B1B680A2B0AD1254B1B6889
:100C90000133244A1360224B00221A60224B0022A7
:100CA0001A60204B1B68052B0AD1204B1B680133AF
:100CB0001E4A13601B4B00221A601B4B01221A6054
:100CC0001A4B1B68022B0AD1194B1B680133184AB7
:100CD0001360164B00221A60134B02221A60144B49
:100CE0001B68052B0AD1134B1B680133114A136093
:100CF0000F4B00221A600C4B03221A600D4B1B682D
:100D0000022B05D10B4B00221A60074B04221A60FC
:100D100009480021094B984780BD00BF210A0800FF
:100D2000B40C0720B80C0720EC110720BC0C0720DE
:100D3000C00C0720C40C0720008008406114080084
:100D400080B483B000AF0346FB71084997F90730C0
:100D50005B09FA7902F01F02012000FA02F241F861
:100D600023200C37BD465DF8047B704700E100E0AE
:100D700080B483B000AF0346FB71094997F907308F
:100D80005B09FA7902F01F02012000FA02F2203317
:100D900041F823200C37BD465DF8047B704700BF47
:100DA00000E100E080B483B000AF0346FB71094965
:100DB00097F907305B09FA7902F01F02012000FA67
:100DC00002F2603341F823200C37BD465DF8047B06
:100DD000704700BF00E100E080B483B000AF03467D
:100DE0003960FB7197F90730002B0BDA0D49FB795D
:100DF00003F00F03043B3A68D2B21201D2B20B44A3
:100E00001A7609E0084997F907303A68D2B2120118
:100E1000D2B20B4483F800230C37BD465DF8047B47
:100E2000704700BF00ED00E000E100E080B500AFDA
:100E30001620314B98471620304B9847162000213A
:100E40002F4B984716202F4B984708202A4B98473E
:100E500008202A4B984708200021294B9847082052
:100E6000284B984728480121284B98471B20224BA4
:100E700098471B20214B98471B200021204B984767
:100E80001B20204B98471C201B4B98471C201B4BBA
:100E900098471C2000211A4B98471C20194B984753
:100EA0001D20154B98471D20144B98471D200021ED
:100EB000134B98471D20134B98471E200E4B984705
:100EC0001E200E4B98471E2000210D4B98471E20D8
:100ED0000C4B98472120084B98472120074B9847F7
:100EE00021200021064B98472120064B98472B20B4
:100EF000044B984780BD00BF710D0800A50D080088
:100F0000D90D0800410D080000080E4031150800F9
:100F100080B400AF144B154AC3F8E420124B144AB6
:100F2000C3F88022104B124AC3F8A0220E4BFF22B6
:100F30009A600D4B40F64122C3F88C220A4B4FF4C5
:100F4000E062C3F88422084B40F64122C3F8AC2289
:100F5000054B4FF4E062C3F8A422034BFF225A6012
:100F6000BD465DF8047B704700400940004D575076
:100F70000506070080B500AF1F4B204AC3F8E420E8
:100F80001F4B1E4AC3F8E4201E4B1C4AC3F8E42042
:100F90001B201D4B98471C201B4B98471E201A4BAB
:100FA00098471F20184B98472120174B9847124B02
:100FB0004CF203025A60104B4CF203025A64104B7D
:100FC0004CF203025A600E4B4CF203025A640D4B72
:100FD0004CF203025A60084B10225A62064B102250
:100FE0005A66074B10225A62054B10225A66054B6F
:100FF00010225A6280BD00BF00000840004D4954D5
:1010000000400840008008406532080080B584B088
:1010100000AFF860B9603B601346FB7100200D4BD8
:1010200098470023BB600C4B4CF203025A60F868EF
:10103000B9683A68094B9847F868B968084B984707
:10104000F868B9681022074B984718461037BD4614
:1010500080BD00BFE9320800008008401514080078
:10106000D51308003914080080B584B000AFF860CB
:10107000B9603B601346FB710020104B98471B2062
:101080000F4B9847F868B9684CF202020D4B98472D
:101090000D4B4CF202025A60F868B9683A680B4B83
:1010A0009847094800211022094B9847F868B96809
:1010B000084B98471037BD4680BD00BFE932080095
:1010C000653208009D130800000008401514080050
:1010D00039140800D513080080B584B000AFF8605B
:1010E000B9603B601346FB710020104B98471C20F1
:1010F0000F4B9847F868B9684CF202020D4B9847BD
:101100000D4B4CF202025A64F868B9683A680B4B0E
:101110009847094801211022094B9847F868B96897
:10112000084B98471037BD4680BD00BFE932080024
:10113000653208009D1308000000084015140800DF
:1011400039140800D513080080B584B000AFF860EA
:10115000B9603B601346FB710020104B98471F207D
:101160000F4B9847F868B9684CF203020D4B98474B
:101170000D4B4CF20302C3F88420F868B9683A6852
:101180000A4B9847084802211022094B9847F868F3
:10119000B968084B98471037BD4680BDE932080052
:1011A000653208009D13080000000840151408006F
:1011B00039140800D513080080B584B000AFF8607A
:1011C000B9603B601346FB710020104B98471D200F
:1011D0000F4B9847F868B9684CF203020D4B9847DB
:1011E0000D4B4CF20302C3F88420F868B9683A68E2
:1011F0000A4B9847084802211022094B9847F86883
:10120000B968084B98471037BD4680BDE9320800E1
:10121000653208009D1308000000084015140800FE
:1012200039140800D513080080B582B000AF03461A
:10123000FB71FB791846034B984700231846083783
:10124000BD4680BD4907080080B500AF084B9847F0
:10125000084B9847084B9847084B9847084B9847C6
:10126000084B984700204FF47A71074B984780BD90
:10127000510108002D0E0800E9080800110F0800B0
:10128000750F0800F50508008D12080080B582B0C2
:1012900000AF03463960FB713B68DBB2FA79104658
:1012A0001946034B9847002318460837BD4680BDB2
:1012B000BD07080080B582B000AF0346FB71FB7923
:1012C0001846034B9847002318460837BD4680BD93
:1012D0007108080080B586B000AFF860B9607A6028
:1012E00000237B61FB68002B02D04FF0FF3314E03A
:1012F0000FE00C4B1B680C4A12681046B9689847FF
:10130000BB680133BB607B6901337B617B68013B58
:101310007B607B68002BECDC7B6918461837BD4688
:1013200080BD00BFF4110720FC11072080B586B0F6
:1013300000AFF860B9607A6000237B61FB68012B25
:1013400008D0FB68022B05D0FB68032B02D04FF0BE
:10135000FF331AE015E00F4B1A680F4B1868BB6893
:10136000591CB9601B78194690470346002B02DAD6
:101370004FF0FF3309E07B6901337B617B68013B00
:101380007B607B68002BE6D17B6918461837BD4629
:1013900080BD00BFF8110720FC11072080B487B082
:1013A00000AFF860B9607A60BB689B01FA681344CB
:1013B0007B617B6902221A607B694FF0FF329A627F
:1013C0007B691B6A7B697A685A601C37BD465DF889
:1013D000047B704780B483B000AF786039607A686E
:1013E0003B689B01134405221A600C37BD465DF82B
:1013F000047B704780B483B000AF786039607A684E
:101400003B689B01134402221A600C37BD465DF80D
:10141000047B704780B485B000AFF860B9607A6033
:10142000FA68BB689B01134418337A685A60143712
:10143000BD465DF8047B704780B487B000AFF860AC
:10144000B9607A60BB689B01FA6813447B617B6971
:101450007A685A621C37BD465DF8047B704700BF4E
:1014600080B485B000AF786039603B689B017A68D2
:101470001344FB60FB681B6A18461437BD465DF8D1
:10148000047B704780B485B000AF7860396000237A
:10149000FB607B68AC221A603B681A683B685B683B
:1014A000B2FBF3F31B09FB60FB68002B03D0FB6866
:1014B000B3F5803F01D301230FE07B68FA681A621D
:1014C0003B689A687B685A607B6840F20222C3F8E6
:1014D00020217B6850221A60002318461437BD462D
:1014E0005DF8047B704700BF80B483B000AF7860C4
:1014F0007B6840221A600C37BD465DF8047B70475C
:1015000080B483B000AF78607B6810221A600C371B
:10151000BD465DF8047B704780B483B000AF78604F
:101520007B6850221A600C37BD465DF8047B70471B
:1015300080B483B000AF786039607B683A689A60A5
:101540000C37BD465DF8047B704700BF80B483B0A4
:1015500000AF78600B46FB707B685B6903F00203A9
:10156000002B01D1012303E0FA787B68DA610023C4
:1015700018460C37BD465DF8047B704780B483B0D5
:1015800000AF786039607B685B6903F00103002B72
:1015900001D1012305E07B689B69DAB23B681A70D0
:1015A000002318460C37BD465DF8047B704700BF2A
:1015B00080B489B000AFF860B9607A60BB681A0186
:1015C0007B689A4202D81023FB6101E00823FB618B
:1015D0007B68DA00FB69B96801FB03F35B081A4416
:1015E000FB69B96801FB03F3B2FBF3F3BB61BB69B1
:1015F000DB087B61BB6903F007033B617B69002B60
:1016000003D07B69B3F5803F01D301230FE0FB6971
:10161000082B05D1FB685B6843F40022FB685A6025
:101620003B691A047B691A43FB681A620023184657
:101630002437BD465DF8047B704700BF80B582B09B
:1016400000AF786078680D4B98477B6800225A603D
:101650007B6800225A627B6800229A627868084B95
:1016600098477868074B98477868074B9847786899
:10167000064B98470837BD4680BD00BF15180800C7
:101680002D1708005D17080075170800911708004E
:1016900080B584B000AFF860B9607A60F8681A4B22
:1016A00098471A4B00221A60BB68002B09D0BB6810
:1016B0001B68F86819467A68154B98470346002B53
:1016C00001D001231BE0BB685A68BB689B681A43C2
:1016D000BB681B691A43BB68DB681A430B4B1B686A
:1016E00013430A4A1360094B1B68084A1360FB68DE
:1016F0005A68064B1B681A43FB685A600023184659
:101700001037BD4680BD00BF3D160800C80C07203D
:10171000B115080080B483B000AF78607B684022C8
:101720001A600C37BD465DF8047B704780B483B007
:1017300000AF78607B6888221A600C37BD465DF880
:10174000047B704780B483B000AF78607B68102260
:101750001A600C37BD465DF8047B704780B483B0D7
:1017600000AF78607B6824221A600C37BD465DF8B4
:10177000047B704780B483B000AF78607B684FF41F
:1017800080721A600C37BD465DF8047B704700BF5D
:1017900080B483B000AF78607B684FF400221A6099
:1017A0000C37BD465DF8047B704700BF80B483B042
:1017B00000AF786039607B685B6903F00203002B3F
:1017C00001D1012305E03B68C3F308027B68DA61BD
:1017D000002318460C37BD465DF8047B704700BFF8
:1017E00080B483B000AF786039607B685B6903F0D8
:1017F0000103002B01D1012306E07B689B69C3F341
:1018000008023B681A60002318460C37BD465DF895
:10181000047B704780B483B000AF78607B68044A73
:10182000C3F8E4200C37BD465DF8047B704700BF69
:101830000041535580B483B000AF0346FB710849A3
:1018400097F907305B09FA7902F01F02012000FACC
:1018500002F241F823200C37BD465DF8047B704747
:1018600000E100E080B483B000AF0346FB7109499A
:1018700097F907305B09FA7902F01F02012000FA9C
:1018800002F2203341F823200C37BD465DF8047B7B
:10189000704700BF00E100E080B483B000AF0346B2
:1018A000FB71094997F907305B09FA7902F01F02C9
:1018B000012000FA02F2603341F823200C37BD46C4
:1018C0005DF8047B704700BF00E100E080B483B0A6
:1018D00000AF03463960FB7197F90730002B0BDA34
:1018E0000D49FB7903F00F03043B3A68D2B21201B1
:1018F000D2B20B441A7609E0084997F907303A68E2
:10190000D2B21201D2B20B4483F800230C37BD4689
:101910005DF8047B704700BF00ED00E000E100E0EF
:1019200080B483B000AF78607B68072B25D801A214
:1019300052F823F0551908005B19080061190800D6
:10194000671908006B1908006F190800731908005F
:10195000771908004FF4FA4310E04FF400430DE00C
:101960004FF400430AE0084B08E0084B06E0084B40
:1019700004E0074B02E0064B00E0002318460C375A
:10198000BD465DF8047B704700093D0000127A00F7
:10199000001BB70080B500AF0620044B98470246F5
:1019A0001346DB009B1A5B00184680BD2119080016
:1019B00080B500AF024B984703465B08184680BDD0
:1019C0009519080080B582B000AF78607868024B46
:1019D00098470837BD4680BD6532080080B58CB099
:1019E00000AF78603960404B984703463B623B68E4
:1019F0001B687B623B689B68BB623B681B68BB6083
:101A00003B685B68FB603B689B683B613B681B7B9A
:101A10007B610023BB617B68344A934208D1082074
:101A2000334B984707F1200378681946314B9847A4
:101A30007B68314A934211D111202D4B98472A4B94
:101A40009847024607F10803786819462B4B9847D8
:101A500078682B4B984778682A4B98477B682A4AC6
:101A6000934211D11220224B98471F4B98470246B0
:101A700007F1080378681946204B98477868204B8F
:101A8000984778681F4B98477B68204A934211D14A
:101A90001320174B9847144B9847024607F1080349
:101AA00078681946154B98477868154B98477868B9
:101AB000144B98477B68164A934211D114200C4B63
:101AC0009847094B9847024607F10803786819467A
:101AD0000A4B984778680A4B98477868094B9847AB
:101AE0003037BD4680BD00BFB119080000080E4068
:101AF000C5190800851408000080094091160800E7
:101B0000151708004517080000C0094000000A40EA
:101B100000400A4080B582B000AF78600B46FB7091
:101B20007B68274A93420AD100BFFB787868194640
:101B3000244B98470346002BF7D101233CE07B68F8
:101B4000214A93420AD100BFFB78786819461F4B9F
:101B500098470346002BF7D101232DE07B681C4AF0
:101B600093420AD100BFFB7878681946174B984713
:101B70000346002BF7D101231EE07B68154A9342F0
:101B80000AD100BFFB7878681946104B9847034686
:101B9000002BF7D101230FE07B680F4A93420AD153
:101BA00000BFFB7878681946084B98470346002B1E
:101BB000F7D1012300E0002318460837BD4680BD59
:101BC00000080E404D15080000800940AD170800C0
:101BD00000C0094000000A4000400A4080B584B0BF
:101BE00000AF786039600023FB607B682A4A93422B
:101BF00007D100BF78683968284B98470346002B07
:101C0000F8D17B68264A93420DD100BF07F10C033F
:101C100078681946234B98470346002BF6D1FB689A
:101C2000DAB23B681A707B681F4A93420DD100BF3D
:101C300007F10C03786819461A4B98470346002BA6
:101C4000F6D1FB68DAB23B681A707B68174A934298
:101C50000DD100BF07F10C0378681946114B984766
:101C60000346002BF6D1FB68DAB23B681A707B683A
:101C70000F4A93420DD100BF07F10C037868194653
:101C8000084B98470346002BF6D1FB68DAB23B6855
:101C90001A701037BD4680BD00080E407D15080043
:101CA00000800940E117080000C0094000000A4018
:101CB00000400A4080B582B000AF786039600F4ABA
:101CC0007B6813600E4B0F4A1A600F4B0F4A1A6065
:101CD000786839680E4B98470E4B1B689B6818460E
:101CE00000210D4B98470B4B1B685B681846002181
:101CF000094B98470837BD4680BD00BFFC1107203F
:101D0000F8110720151B0800F4110720DD1B08003F
:101D1000DD190800300807207D3B080080B582B03F
:101D200000AF284B1B780133DAB2264B1A70264BD2
:101D30005B697B607B6803F00103002B3ED0224B84
:101D40009B69FB70FB787F33FB701E4B1B78012B6C
:101D500003D1FB781D4A136009E01A4B1B78022B54
:101D600005D1FB781A4A1360164B00221A70174BE4
:101D70001A68174B1B68174811461A46164B9847A6
:101D800016480021164B984714480121144B9847D8
:101D90000E4B1B68114800211A46124B98470C4BFA
:101DA0001B680E4801211A460E4B98470B4800212C
:101DB0000D4B9847094801210B4B98470837BD4602
:101DC00080BD00BFE80C072000080E40D80C07209B
:101DD0000C120720446A0800B93A080000000840C5
:101DE000F513080015140800D513080090B587B046
:101DF00000AF1A4B98471A4B98470820194B984741
:101E00000B20194B9847194B50221A60174B4FF46F
:101E100000625A60154B46221A62154B4FF440720D
:101E20005A6612481349144B98471048134B984769
:101E30000E48134B98470D48124B98470820124BF9
:101E400098470820114B984708200021104B9847CD
:101E50000820104B984700237B6120E0712A08007E
:101E600049120800C51908006532080000080E4034
:101E7000000E0E40346A0800B51C08001915080051
:101E800001150800E91408006518080099180800F1
:101E9000CD180800351808007B6901337B617B6928
:101EA000914A9342F8DD9148914B98470B20914B12
:101EB00098470C208F4B98470D208E4B98470E204B
:101EC0008C4B98478C4BDB6B5B0E03F001038B4A0A
:101ED00013608B4BDB6B1B0F03F00103894A13600C
:101EE000874BDB6B9B0E03F00103874A1360854B26
:101EF0001B68864A1360844B1B68854A1360854BB8
:101F00003B61854BFB6041F6A213BB608348012116
:101F1000834B9847784B4FF400221A60764B4FF46E
:101F200000221A617F4B1B78012B57D07E4B1B6818
:101F3000002B25D17D4BDB6B9B0B03F001036F4A1C
:101F400013606E4B1B68012B16D1794B1B68002B5D
:101F500012D1784B1B680133764A1360754B1B68AE
:101F6000022B09D174480021744B9847714B002211
:101F70001A606D4B01221A60604B1B686C4A13603B
:101F80006F4B1B68002B29D1674B1B68012B25D198
:101F9000664BDB6BDB0B03F001035A4A1360594BB2
:101FA0001B68012B16D1594B1B68002B12D1654BB6
:101FB0001B680133634A1360624B1B68022B09D113
:101FC0005D4801215D4B98475E4B00221A605C4BD7
:101FD00001221A604B4B1B684C4A13605A4B1B780A
:101FE000012B35D1514BDB6B9B0B03F00103434AB3
:101FF0001360424B1B68012B0BD14D4B1B68002B10
:1020000007D1524B1B680133504A1360504B0022DA
:102010001A603A4B1B68464A1360444BDB6BDB0B80
:1020200003F00103374A1360364B1B68012B0BD1B9
:10203000364B1B68002B07D1464B1B680133454AC2
:102040001360454B00221A602E4B1B682F4A136009
:10205000424B1B78DBB2012B31D1334B1B68012B78
:102060002DD1374B1B68012B29D13D4B1B78012B00
:1020700025D1234BDB6B9B0E03F00103224A136037
:10208000214B1B68012B16D1214B1B68002B12D151
:10209000344B9847344B9847314B00221A702648EE
:1020A00004211F22FB68314CA047234802211D2236
:1020B0003B692F4CA047144B1B68154A13602D4BEE
:1020C0001B78052B3FF62EAF01A252F823F000BF7C
:1020D00079210800A9210800251F08009321080084
:1020E000C3210800D92108009F8601004C6A08001E
:1020F000B93A08006532080000100E40EC0C0720C9
:1021000000120E40F00C0720F40C0720F80C0720FA
:10211000FC0C0720F306140035050F0000080E40E4
:1021200031150800D40C0720000D0720000E0E40CA
:10213000040D0720080D072000000840F5130800D3
:102140000C0D0720100D0720DC0C0720E00C0720E9
:10215000A00C0720E40C0720A40C0720D50C0720B6
:10216000B00C072075250800212608004911080039
:10217000B911080000040720A84B4FF47A721A60C6
:10218000A74B9847A74B03221A70A74B00221A703F
:10219000D5E1A64B1B68012B02D1A24B01221A707C
:1021A000A14B00221A70CAE1A14B4FF47A721A6057
:1021B000A04B98479B4B04221A709B4B00221A702D
:1021C000BDE19D4B1B68012B02D1964B05221A7075
:1021D000954B00221A70B2E1984B1B78DBB2012BB1
:1021E00040F0AD81964B1B78FB71FB79013B0C2BCA
:1021F00000F29A8101A252F823F000BF8322080066
:10220000D9220800172508009D220800AF220800E7
:10221000BB220800CD220800492208006B220800DA
:102220002925080029250800312208003D22080040
:102230007A4BD2221A607A4B984776E17C4BD222B5
:102240001A607C4B984770E1744BD2221A60784B2D
:10225000D2221A60724B9847764B9847714B0522F1
:102260001A70784B01221A705FE1774B98476D4BDB
:1022700005221A706C4B00221A70724B00221A70E1
:1022800053E16A4B00221A606B4B00221A60664BC6
:1022900000221A70634B00221A7046E15F4BD22273
:1022A0001A605F4B98475F4B05221A703DE1664B01
:1022B00098475C4B05221A7037E15D4BD2221A60B9
:1022C0005C4B9847574B05221A702EE15E4B98479E
:1022D000544B05221A7028E15C4B01221A705C4BAA
:1022E0001B889BB2873B182B00F2018101A252F898
:1022F00023F000BF59230800672308007523080056
:1023000083230800912308009F230800AD230800C1
:10231000BB230800C9230800D7230800E5230800D1
:10232000F3230800012408000F24080055240800A6
:1023300063240800712408007F2408008D2408000D
:102340009B240800A9240800B7240800C52408001D
:10235000D3240800E1240800304BD5221A60344B06
:10236000D5221A60C3E02D4BD2221A60304BD22204
:102370001A60BCE0294BD2221A602D4BD2221A607F
:10238000B5E0264BCF221A60294BCF221A60AEE06F
:10239000224BCF221A60264BCF221A60A7E01F4B98
:1023A000CC221A60224BCC221A60A0E01B4BCC221C
:1023B0001A601F4BCC221A6099E0184BC9221A6090
:1023C0001B4BC9221A6092E0144BC9221A60184BA9
:1023D000C9221A608BE0114BC6221A60144BC62228
:1023E0001A6084E00D4BC6221A60114BC6221A6097
:1023F0007DE00A4BC3221A600D4BC3221A6076E0BF
:10240000064BC3221A600A4BC3221A606FE0034BCB
:10241000C0221A60064BC0221A6068E0D80C072060
:102420007525080000040720D50C0720000D0720A3
:102430000C120720212608000C0D0720F00D0720A4
:10244000940C0720D40C0720BD260800B00C0720F0
:10245000CA0D07203A4BC0221A603A4BC0221A60BC
:1024600045E0374BBD221A60364BBD221A603EE074
:10247000334BBD221A60334BBD221A6037E0304B1C
:10248000BA221A602F4BBA221A6030E02C4BBA22C3
:102490001A602C4BBA221A6029E0294BB7221A6025
:1024A000284BB7221A6022E0254BB7221A60254B31
:1024B000B7221A601BE0224BB4221A60214BB422CF
:1024C0001A6014E01E4BB4221A601E4BB4221A602C
:1024D0000DE01B4BB1221A601A4BB1221A6006E0C4
:1024E000174BB1221A60174BB1221A6000BF164B6E
:1024F00001221A70154802211D223B69144CA04785
:10250000144B9847144B9847144B01221A70144BE4
:1025100005221A7009E0134B9847114B05221A70D7
:102520000E4B00221A7000E000BF0F4B00221A7001
:102530000E4B00221A700E4B00221A6000BFF1E40D
:10254000D80C07200C120720DC0C072000000840E4
:10255000B91108007525080021260800D50C0720B0
:1025600000040720BD260800940C0720F00D07206A
:102570008E0C072098B500AF1F4B4FF4C0125A6362
:102580001E4B03221A601E4B4FF4FF721A601B4B46
:102590001C4AC3F8E4201A4B1A4AC3F8E420174B2C
:1025A0000322C3F8A020154B0C22C3F8A420144B1F
:1025B0004FF4FF72C3F8A020114B4FF47F22C3F8F1
:1025C000A4200E4A104B1B68104951F83330936316
:1025D0000B4A0D4B1B680D49DB000B445B68936392
:1025E00001200B4B98470B4B1B680B4800211B220B
:1025F0000A4CA04798BD00BF000E0E4000140E40CC
:1026000000120E40004F4950CC0C0720000007205C
:1026100029120800D80C07200000084069100800A3
:1026200098B500AF1B4B1C4AC3F8E4201B4B1A4A59
:10263000C3F8E420174B0C22C3F8A020154B03224B
:10264000C3F8A420154B4FF47F22C3F8A020134BEE
:102650004FF4FF72C3F8A420114B4FF401125A63D8
:102660000C4A104B1B68104951F8333093630B4AE6
:102670000C4B1B680C49DB000B445B689363022026
:102680000A4B98470A4B1B680A4801211C220A4C36
:10269000A04798BD00140E40004F495000120E4054
:1026A00000100E40D00C072000020720291208005D
:1026B0000C12072000000840D910080080B500AFB8
:1026C0000020064B98470120044B98470320034BFA
:1026D00098470420014B984780BD00BFB512080001
:1026E00080B582B000AF78607B68072B30D801A23C
:1026F00052F823F051270800152708001D2708006D
:10270000252708002D270800352708003D27080049
:10271000472708000020104B984719E001200E4B76
:10272000984715E000200D4B984711E010200B4B07
:1027300098470DE02020094B984709E000203E21F2
:10274000074B984704E001203E21054B984700BF06
:102750000837BD4680BD00BF75300800E130080075
:102760008131080080B582B000AF78607B68072BAC
:1027700026D801A252F823F0992708009D270800C7
:102780009D270800AF270800AF270800AF270800E3
:10279000AF270800AF270800012312E00B4B984732
:1027A0000346002B14BF01230023DBB209E0084BD2
:1027B00098470346002B14BF01230023DBB200E03F
:1027C000002318460837BD4680BD00BFAD30080065
:1027D000F931080080B483B000AF78607B68072BC4
:1027E00025D801A252F823F0092808000F28080074
:1027F000152808001B2808001F28080023280800A7
:10280000272808002B2808004FF4FA4310E04FF463
:1028100000430DE04FF400430AE0084B08E0084B8A
:1028200006E0084B04E0074B02E0064B00E0002303
:1028300018460C37BD465DF8047B704700093D0023
:1028400000127A00001BB70080B582B000AF0346CB
:10285000FB7100BFFB791846054B9847034683F090
:102860000103DBB2002BF5D10837BD4680BD00BFA8
:102870006527080080B586B000AFF8607A603B60DD
:102880000B46FB727B68002B07D13B68002B04D101
:10289000FB684FF470021A6019E0FB7A18460D4B82
:1028A000984702467B68B2FBF3F37B617B693A6829
:1028B00002FB03F37B613B68013B1A04064B1340A8
:1028C0007A68D2B2134343F47C52FB681A6018371B
:1028D000BD4680BDD52708000000FF0780B582B047
:1028E00000AF786039603B68002B08D1084B9847EF
:1028F000084A7B681B6843F00053936205E0054A71
:102900007B681B6843F48033D3610837BD4680BDC4
:102910001532080000060E4080B582B000AF786026
:102920007B68002B03D1054B9847034602E0044B1C
:102930009847034618460837BD4680BD2D3208002B
:102940004932080080B582B000AF0346FB71FB79C5
:10295000033B042B08D8FB791846054B9847FB79B5
:102960001846044B984700E000BF0837BD4680BDBD
:10297000E12608004928080080B582B000AF7860E1
:1029800000BF7868044B98470346002BF9D000231A
:1029900018460837BD4680BD1929080080B500AF2C
:1029A0000620044B984702461346DB009B1A5B0047
:1029B000184680BDD527080080B500AF024B984768
:1029C00003465B08184680BD9D29080090B583B07A
:1029D00000AF104B9847034618460F4B9847062008
:1029E0000E4B98473B1D1846062101220E230C4C26
:1029F000A0473B1D184600210A4B984700200A4B70
:102A000098471020094B9847094B98470C37BD460B
:102A100090BD00BFB92908005135080045290800BC
:102A200075280800DD28080079290800F12F080022
:102A3000D133080080B582B000AF78607868024B6F
:102A400098470837BD4680BD6532080080B500AFA5
:102A50000B20064B98470C20044B98470D20034B46
:102A600098470E20014B984780BD00BF352A0800CB
:102A700080B500AF174B4FF400425A60164B984791
:102A80003B204FF06051154B984755204FF0605157
:102A9000124B984756204FF06051104B98476820D2
:102AA0000F490E4B98475C200E490C4B98470E4837
:102AB0004FF440714FF000620C4B98472B204FF0C1
:102AC0000061064B98472A204FF00061034B98475E
:102AD00080BD00BF501A0E404D2A0800C92C0800C6
:102AE0007900002801000028000E0E40092E080081
:102AF00080B485B000AFF860B9607A607B68002B65
:102B000003D0FB68BA685A6602E0FB68BA681A66C6
:102B10001437BD465DF8047B704700BF80B487B0B2
:102B200000AFF860B9607A60FB687A685A64BB6885
:102B3000B3F1805F1FD0B3F1805F05D8002B27D0A1
:102B4000B3F1006F0AD01FE0B3F1405F20D0B3F1C2
:102B5000605F1DD0B3F1205F1AD015E0FB681B6FDA
:102B60007B61FB681A6F7B68D9437B690B401A4015
:102B7000FB681A6708E0FB681B6F7B617A687B69FA
:102B80001A43FB681A6700BFFB687A685A6000E066
:102B900000BF1C37BD465DF8047B704780B584B02C
:102BA00000AFF860B9607A60F868B968184B984768
:102BB0007B6803F00103F868B9681A46154B98471B
:102BC0007B6803F00A03002B03D0FB68BA681A6223
:102BD00002E0FB68BA685A627B6803F00203002BCC
:102BE00004D0FB68BA68C3F8802008E07B6803F073
:102BF0000803002B03D0FB68BA68C3F88020FB6889
:102C0000BA685A61FB68BA681A601037BD4680BD61
:102C10007D2C0800F12A080080B584B000AFF86070
:102C2000B9607A603B60F868B968124B9847F868F9
:102C3000B968BA69104B98473B68002B03D0FB6812
:102C4000BA681A6502E0FB68BA685A657B68002BAF
:102C500003D0FB68BA681A6302E0FB68BA685A637B
:102C6000FB68BA681A61FB68BA681A601037BD461B
:102C700080BD00BF7D2C0800F12A080080B483B01D
:102C800000AF786039607B683A685A640C37BD469B
:102C90005DF8047B704700BF80B483B000AF7860FC
:102CA0007B68DB6C18460C37BD465DF8047B7047CB
:102CB00080B483B000AF78607B689B6C18460C379B
:102CC000BD465DF8047B704790B587B002AF786071
:102CD00039607B685B0903F5001303F207735B023D
:102CE000FB603B6803F0F043B3F1205F48D0B3F1E1
:102CF000205F06D8B3F1006F0AD0B3F1805F23D014
:102D000072E0B3F1405F47D0B3F1605F44D06BE055
:102D10007B6803F01F03012202FA03F3F8684FF007
:102D200000611A46344B98477B6803F01F03012269
:102D300002FA03F31A463B6803F00103F8681146F0
:102D40001A462E4B984751E07B6803F01F0301227F
:102D500002FA03F3F8684FF080511A46264B984761
:102D60007B6803F01F03012202FA03F31A463B6853
:102D700003F00103F86811461A46204B984735E0E6
:102D80007B6803F01F03012202FA03F3F868194677
:102D90003A681B4B984729E07B6803F01F03012228
:102DA00002FA03F319463B6803F06053B3F1605F26
:102DB0000CBF01230023DBB21A463B6803F0040377
:102DC000002B14BF01230023DBB21C463B6803F039
:102DD0000103002B14BF01230023DBB20093F8682A
:102DE0002346084CA04701E0002300E001231846D9
:102DF0001437BD4690BD00BF1D2B0800F12A080006
:102E00009D2B0800192C080090B587B002AFF86020
:102E1000B9607A607B6803F0F043B3F1205F2ED095
:102E2000B3F1205F06D8B3F1006F0AD0B3F1805F31
:102E300016D04CE0B3F1405F27D0B3F1605F24D0EF
:102E400045E0F8684FF00061BA68244B98477B680A
:102E500003F00103F868B9681A46214B984738E037
:102E6000F8684FF08051BA681C4B98477B6803F0B4
:102E70000103F868B9681A46194B984729E0F868C1
:102E8000B9687A68174B984723E07B6803F0605372
:102E9000B3F1605F0CBF01230023DBB21A467B68ED
:102EA00003F00403002B14BF01230023DBB21C46F4
:102EB0007B6803F00103002B14BF01230023DBB266
:102EC0000093F868B9682346074CA04701E0002347
:102ED00000E0012318461437BD4690BD1D2B0800A5
:102EE000F12A08009D2B0800192C080080B584B039
:102EF00000AF786039607868224B9847F86078684E
:102F0000214B98470246FB681340FB60FB68002B8F
:102F100034D00023BB602EE01C4ABB681B01134465
:102F20001A683B689A4223D1184ABB681B011344B4
:102F30005A68FB681340002B1AD0144ABB681B0167
:102F4000134408335B681149BA6812010A441068D7
:102F50000E49BA6812010A445268114698470B4A52
:102F6000BB681B0113445B68DB43FA681340FB60DA
:102F7000BB680133BB60FB68002BCDD11037BD4669
:102F800080BD00BF992C0800B12C0800140D07204B
:102F900080B500AF02480B21024B984780BD00BFAF
:102FA000000E0E40ED2E080080B500AF02480C2147
:102FB000024B984780BD00BF00100E40ED2E080068
:102FC00080B500AF02480D21024B984780BD00BF7D
:102FD00000120E40ED2E080080B500AF02480E2111
:102FE000024B984780BD00BF00140E40ED2E080034
:102FF00080B485B000AF78601D491D4B1B6B23F07A
:1030000070027B6813430B634FF40063FB6007E0BF
:10301000FB68002B01D1012323E0FB68013BFB602F
:10302000134B9B6E03F00803002BF1D0104A104B9A
:103030001B6B23F0030343F0020313634FF400639D
:10304000FB6007E0FB68002B01D1012309E0FB686E
:10305000013BFB60064B9B6E03F00803002BF1D095
:10306000002318461437BD465DF8047B704700BF47
:1030700000060E4080B483B000AF78607B68012BFF
:1030800007D1084A074B9B6843F0254343F480135C
:103090009360044B044A1A600C37BD465DF8047B0C
:1030A000704700BF101A0E40080000A580B400AFA2
:1030B000094B5B6903F08003002B07D0074B9B6E25
:1030C00003F08003002B01D0012300E00023184609
:1030D000BD465DF8047B7047101A0E4000060E4096
:1030E00080B485B000AF78600023FB60214B1B6A81
:1030F00003F00103002B0ED01E491E4B1B6A23F464
:103100005C1323F078037A68134343F45C1343F0B1
:1031100008030B620BE00123FB601649154B1A6A8A
:10312000154B13407A681A43144B13430B6200BFCC
:10313000104B9B6E03F40033002BF9D00D4A0D4B5E
:103140001B6A23F09B7323F4803343F45C131362F4
:10315000FB68002B09D0074A064B1B6A23F45C135B
:1031600023F0010343F45C1313621437BD465DF88A
:10317000047B704700060E408600C8FF09FF370039
:1031800080B483B000AF786039607B68002B08D0D2
:103190001649164B1B6A164A1A40164B13430B620C
:1031A0001EE01249114B1B6A23F45C1323F0030346
:1031B0003A68120292B2134343F45C1343F00103E2
:1031C0000B6200BF094B9B6E03F00103002BF9D08B
:1031D000064A064B1B6A43F09B7343F48033136229
:1031E0000C37BD465DF8047B704700BF00060E40FB
:1031F000FCFFC8FE0200370180B400AF044B9B6E99
:1032000003F480331846BD465DF8047B704700BF69
:1032100000060E4080B400AF034B4FF000529A629C
:10322000BD465DF8047B704700060E4080B400AFD9
:10323000044B9B6E03F002031846BD465DF8047B09
:10324000704700BF00060E4080B400AF044B9B6E79
:1032500003F040031846BD465DF8047B704700BF8D
:1032600000060E4080B483B000AF78607B682C2BE2
:1032700001D901232FE07B681F2B13D8194B9A69C2
:103280007B68012101FA03F31A407B68012101FAEE
:1032900003F39A421ED0134A7B68012101FA03F31B
:1032A000136117E07B68203B7B600E4BD3F808214D
:1032B0007B68012101FA03F31A407B68012101FABE
:1032C00003F39A4206D0074A7B68012101FA03F30F
:1032D000C2F80031002318460C37BD465DF8047B68
:1032E000704700BF00060E4080B483B000AF786026
:1032F0007B68002B04D0074B074AC3F8E42003E0A7
:10330000044B064AC3F8E4200C37BD465DF8047B45
:10331000704700BF00060E4001434D5000434D5022
:1033200080B400AFFEE700BF80B582B000AF1E4B97
:103330007B601E4B3B607A683B689A420CD007E08A
:103340003B681A1D3A607A68111D796012681A602C
:103350003B68174A9342F3D3164B3B6004E03B684B
:103360001A1D3A6000221A603B68134A9342F6D352
:10337000124B7B60124A7B6823F0604323F07F038B
:1033800093607B68B3F1005F09D37B680D4A934279
:1033900005D80B4A0A4B9B6843F0005393600A4BD5
:1033A00098470A4B9847FEE7DC6A080000000720B0
:1033B0006C0C07206C0C07204C1207200000080042
:1033C00000ED00E0FFFF0F20693A0800ED1D080046
:1033D00080B400AF564B1B6B03F00303032B00F2CA
:1033E0008A8001A252F823F0F9330800193408004A
:1033F00069340800693408004E4B5B6903F08003B0
:10340000002B04D04C4B4FF400421A6073E04A4B3F
:103410004FF4FA421A606EE0454B1B6A03F080736A
:10342000002B03D0444B454A1A601CE0424B444AEF
:103430001A603F4B1B6A03F07003102B04D0202B43
:1034400008D0002B0ED00EE03B4B1B685B003A4AC5
:10345000136008E0384B1A6813465B001344364A81
:10346000136000E000BF46E0314B1B6A03F080733D
:10347000002B03D0304B314A1A601CE02E4B304AEF
:103480001A602B4B1B6A03F07003102B04D0202B07
:1034900008D0002B0ED00EE0274B1B685B00264A9D
:1034A000136008E0244B1A6813465B001344224A59
:1034B000136000E000BF1E4B1B6B03F00303022BE5
:1034C00015D11B4B9A6A1F4B13401B0C01331A4A30
:1034D000126802FB03F3184A1360154B9B6ADBB2B8
:1034E000154A1268B2FBF3F3134A136002E0124B61
:1034F000154A1A6000BF0E4B1B6B03F07003702B54
:1035000008D10D4B1B68114AA2FB03235B080A4A32
:10351000136009E0064B1B6B03F070031A09064B9E
:103520001B68D340044A1360BD465DF8047B7047B6
:1035300000060E40101A0E4004040720001BB700BE
:1035400000093D000000FF07001C4E0EABAAAAAA0E
:1035500080B483B000AF78607B68254A934206D878
:10356000244B00221A60244B00221A603BE07B6847
:10357000224A934208D81F4B4FF480721A601E4BA8
:103580004FF480721A602EE07B681D4A934208D87F
:10359000184B4FF400721A60174B4FF400721A6008
:1035A00021E07B68174A934208D8124B4FF44072CF
:1035B0001A60114B4FF440721A6014E07B68124A93
:1035C000934208D80B4B4FF480621A600A4B4FF4B9
:1035D00080621A6007E0074B4FF4A0621A60064B46
:1035E0004FF4A0621A600C37BD465DF8047B70474B
:1035F000BFEA2101000A0E40000C0E407FF0FA02E3
:10360000FF8FD003FFB3C4047F4A5D0580B485B04B
:1036100000AF78600B4B1B68002B02D1094B0A4AA4
:103620001A60084B1B68FB60064B1A687B681344E2
:10363000044A1360FB6818461437BD465DF8047BE6
:10364000704700BF840D07205032072080B483B03C
:1036500000AF78604FF0FF3318460C37BD465DF879
:10366000047B704780B483B000AF786039603B68FA
:103670004FF400525A60002318460C37BD465DF8DF
:10368000047B704780B483B000AF78600123184694
:103690000C37BD465DF8047B704700BF80B485B031
:1036A00000AFF860B9607A60002318461437BD4651
:1036B0005DF8047B704700BF81F0004102E000BF6D
:1036C00083F0004330B54FEA41044FEA430594EAE2
:1036D000050F08BF90EA020F1FBF54EA000C55EA1D
:1036E000020C7FEA645C7FEA655C00F0E2804FEAEE
:1036F0005454D4EB5555B8BF6D420CDD2C4480EAD0
:10370000020281EA030382EA000083EA010180EAFF
:10371000020281EA0303362D88BF30BD11F0004F4D
:103720004FEA01314FF4801C4CEA113102D0404283
:1037300061EB410113F0004F4FEA03334CEA1333BE
:1037400002D0524263EB430394EA050F00F0A780D6
:10375000A4F10104D5F1200E0DDB02FA0EFC22FAD1
:1037600005F2801841F1000103FA0EF2801843FAC5
:1037700005F359410EE0A5F120050EF1200E012AB6
:1037800003FA0EFC28BF4CF0020C43FA05F3C018F4
:1037900051EBE37101F0004507D54FF0000EDCF16D
:1037A000000C7EEB00006EEB0101B1F5801F1BD316
:1037B000B1F5001F0CD349085FEA30004FEA3C0C1A
:1037C00004F101044FEA445212F5800F80F09A8010
:1037D000BCF1004F08BF5FEA500C50F1000041EB14
:1037E000045141EA050130BD5FEA4C0C404141EB18
:1037F000010111F4801FA4F10104E9D191F0000F3F
:1038000004BF01460020B1FA81F308BF2033A3F1C1
:103810000B03B3F120020CDA0C3208DD02F1140CB8
:10382000C2F10C0201FA0CF021FA02F10CE002F1F3
:103830001402D8BFC2F1200C01FA02F120FA0CFCEC
:10384000DCBF41EA0C019040E41AA2BF01EB045135
:10385000294330BD6FEA04041F3C1CDA0C340EDC33
:1038600004F11404C4F1200220FA04F001FA02F376
:1038700040EA030021FA04F345EA030130BDC4F134
:103880000C04C4F1200220FA02F001FA04F340EA29
:103890000300294630BD21FA04F0294630BD94F0DA
:1038A000000F83F4801306BF81F480110134013DC1
:1038B0004EE77FEA645C18BF7FEA655C29D094EA32
:1038C000050F08BF90EA020F05D054EA000C04BFB0
:1038D0001946104630BD91EA030F1EBF002100209B
:1038E00030BD5FEA545C05D14000494128BF41F03A
:1038F000004130BD14F580043CBF01F5801130BD9E
:1039000001F0004545F0FE4141F470014FF0000028
:1039100030BD7FEA645C1ABF194610467FEA655CD9
:103920001CBF0B46024650EA013406BF52EA03357B
:1039300091EA030F41F4002130BD00BF90F0000F69
:1039400004BF0021704730B54FF4806404F13204A5
:103950004FF000054FF0000150E700BF90F0000F5E
:1039600004BF0021704730B54FF4806404F1320485
:1039700010F0004548BF40424FF000013EE700BF55
:1039800042004FEAE2014FEA31014FEA02701FBFE5
:1039900012F07F4393F07F4F81F06051704792F0B7
:1039A000000F14BF93F07F4F704730B54FF4607431
:1039B00001F0004521F0004120E700BF50EA01027C
:1039C00008BF704730B54FF000050AE050EA010229
:1039D00008BF704730B511F0004502D5404261EB99
:1039E00041014FF4806404F132045FEA915C3FF4DA
:1039F000DCAE4FF003025FEADC0C18BF03325FEA73
:103A0000DC0C18BF033202EBDC02C2F1200300FA27
:103A100003FC20FA02F001FA03FE40EA0E0021FA4C
:103A200002F11444C1E600BF4A0011D212F500129F
:103A300011D20DD56FF47873B3EB62520ED44FEA06
:103A4000C12343F0004343EA505323FA02F0704786
:103A50004FF00000704750EA013002D14FF0FF30C4
:103A600070474FF00000704770B50F4E0F4D761B3A
:103A7000B61018BF002405D0013455F8043B984710
:103A8000A642F9D10A4E0B4D03F012F8761BB61080
:103A900018BF002406D0013455F8043B9847A642CD
:103AA000F9D170BD70BD00BFBC6A0800BC6A0800D7
:103AB000C46A0800BC6A08000FB410B5074B82B096
:103AC00004AC54F8042B186823468168019400F074
:103AD00043F902B0BDE8104004B070473008072039
:103AE00070B4840746D0541E002A41D0CDB203469C
:103AF00002E0621EE4B3144603F8015B9A07F8D1B2
:103B0000032C2ED9CDB245EA05250F2C45EA0545F3
:103B100019D9264603F11002103E0F2E42F8105C10
:103B200042F80C5C42F8085C42F8045C02F11002B6
:103B3000F2D8A4F1100222F00F0204F00F041032A8
:103B4000032C13440DD91E462246043A032A46F894
:103B5000045BFAD8221F22F003020432134404F05B
:103B600003042CB1C9B21C4403F8011BA342FBD1CE
:103B700070BC704714460346C2E700BF00290CBF63
:103B8000022200224FF4806300F000B82DE9F041DA
:103B90003A4D04462E6890460D461F4616B1B36B4B
:103BA000002B3CD0B8F1020F2FD8002F2DDB21467F
:103BB000304601F02DF8A18900236360A3610B0654
:103BC00027D421F0830189B2B8F1020FA1812AD054
:103BD000002D36D0B8F1010F11D089B201F00800E4
:103BE000274B80B2F36325602561676178B111F0DE
:103BF000030F18BF00270020A760BDE8F08141F047
:103C000001017B42A181A361E7E74FF0FF30BDE8EE
:103C1000F0812169304601F067F9A189D1E730468A
:103C200001F08AF8BEE7002004F1430341F00201ED
:103C300000250122A181A560236023616261BDE8A6
:103C4000F081002F08BF4FF48067384601F056FC22
:103C5000054628B1A18941F0800189B2A181B9E767
:103C60004FF4806001F04AFC054618B9A1894FF075
:103C7000FF30D9E74FF48067ECE700BF300807203A
:103C80003D4C080020F0030110F00300C0F10000DB
:103C900051F8043B00F1040C4FEACC0C6FF0000229
:103CA0001CBF22FA0CF213434FF0010C4CEA0C2C0F
:103CB0004CEA0C4CA3EB0C0222EA030212EACC12EF
:103CC00004BF51F8043B0430F4D0C2F1000102EA11
:103CD0000102B2FA82F2C2F11F0200EBD200704779
:103CE0004B6E2DE9F0479C040F4692462BD5936806
:103CF000126833B3804602F1080919E96000B6087A
:103D000017D0043D002401E0A64210D0404655F8EB
:103D1000041F3A4601F088F8431C04F10104F3D172
:103D20000023CAF80830CAF80430BDE8F087DAF892
:103D30000830A3EB8603CAF8083009F10809002B04
:103D4000DBD10020ECE701F0A7F90023CAF8083026
:103D5000CAF80430BDE8F0872DE9F04FABB01C463F
:103D6000009193460493019018B1836B002B00F0EF
:103D7000E380009B99898AB2900408D418465B6E50
:103D800041F4005223F400538281436692B211073A
:103D900040F1B280009B1B69002B00F0AD8002F067
:103DA0001A020A2A00F0B4800DF1680A5446002372
:103DB000099302930F930E93CDF834A09BF8003033
:103DC000002B00F0A384252B00F0A0845A4601E0CC
:103DD000252B03D012F8013F002BF9D1CBEB0206C3
:103DE000154696B10E9B0F9A01333244072BC4F847
:103DF00000B066600F920E9379DD002A40F0AD842A
:103E00005446029B0E92334402932B78002B00F011
:103E10005F834FF0000300214FF0FF3C8DF82F30FF
:103E2000681C6B7888460D46664600F1010BA3F1CD
:103E30002002582A00F2AA82DFE812F09A02A802B1
:103E4000A802A202A802A802A802A802A802A80228
:103E500054026002A8020D016C02A80229012F0180
:103E60002F012F012F012F012F012F012F012F01D2
:103E7000A802A802A802A802A802A802A802A802F2
:103E8000A802A8023D01A802A802A802A802A8024E
:103E9000A802A802A802A802A8027401A802A80207
:103EA000A802A802A8028B01A802A802A301A802E6
:103EB000A802A802A802A802A802A802A802A802B2
:103EC000A802C701DA01A802A802A8022301DA01A8
:103ED000A802A8024B02A80288021301F4010702FB
:103EE000A8020D02A8028100A802A802320208342A
:103EF000029B3344029388E70198009900F072FD19
:103F0000A8B9009B9A8902F01A020A2A7FF44CAFE2
:103F1000009BB3F90E30002BFFF646AF01980099D5
:103F20005A46234600F020FD2BB0BDE8F08F4FF03D
:103F3000FF302BB0BDE8F08F00F0FEFE19E718F05F
:103F4000200F0395B44600F00C81049B073323F047
:103F5000070303F10802D3E90067049201234FF03D
:103F60000002E1468DF82F200025BCF1000FA8BF0C
:103F700028F0800856EA070240F0C480BCF1000F28
:103F800000F08083012B00F0C580022B00F08683B7
:103F90005146F20842EA4772F80806F0070307465E
:103FA0001646303356EA070201F8013DF1D118F008
:103FB000010F079140F0FA83C1EB0A09E1454E4633
:103FC000B8BF664605B1013618F00203059318BF65
:103FD000023618F08403069340F0F981039B9D1B81
:103FE000002D40F3F481102D40F38A842046DDF843
:103FF00038E064460F9AC44F10237146844607E0A8
:1040000001F1020E01460CF1080C103D102D13DDDC
:10401000481C103207280F92CCF80070CCF80430FE
:104020000E90EDDD002A40F0C281103D102D1146AA
:104030004FF0010ED446EBDC63467146A4461C46A5
:104040002A4407290F92276065600E9100F346838A
:104050000834481CBEE1584648F004089BF800307C
:10406000E3E618F020030395B44662D0049B0733BF
:1040700023F0070303F10802D3E900670492002349
:104080006DE748F040089BF800305846CDE648F010
:1040900080089BF800305846C7E6A3F1300200259F
:1040A0001BF8013B05EB850502EB4505A3F130024A
:1040B000092AF5D9BBE648F0100818F0200F03953F
:1040C000B4468DF82F1000F09B800499073121F041
:1040D0000701D1E9002316461F4608310491002A42
:1040E00073F10003C0F2A483BCF1000FA8BF28F055
:1040F000800856EA07029DF82F50E1464FF0010371
:104100003FF43CAF012B7FF440AF002F08BF0A2ED5
:1041100080F032832AAB303603F8416DC3EB0A09D5
:1041200007934BE748F0100818F020030395B446B6
:104130009CD118F0100240F0F78218F0400300F014
:10414000F382049913460A4604320E88002704922B
:1041500005E748F0100818F0200F0395B4467FF4E7
:10416000F4AE049A18F0100F134640F0E48218F0F1
:10417000400F00F0E08216880432002701230492E9
:10418000EDE6624A18F0200F0395B4468DF82F1023
:10419000099200F08F80049A073222F0070202F1A0
:1041A00008010491D2E9006718F0010F00F08F8236
:1041B00056EA070200F08B8230228DF8313048F049
:1041C00002088DF830200223C9E6049A01261368FC
:1041D0004FF000018DF840301346B146043304938C
:1041E00010AB03958DF82F1007934FF0000CEBE602
:1041F00018F0200F0395B4468DF82F107FF465AFAB
:10420000049A18F0100F134640F0A08218F0400FE7
:1042100000F09C82B2F900600433F7170493324631
:104220003B465CE7049978238DF83130384BB4462F
:1042300030220E6804310993039548F00208049176
:1042400000278DF83020022389E648F020089BF8EB
:1042500000305846E9E54FF00001049A03951368D1
:10426000B44607938DF82F10151D002B00F04E83D8
:10427000002EC0F22983079E624630460021CDF809
:1042800010C001F0C9FBDDF810C0002800F04E831B
:104290000495C6EB00099DF82F504FF0000C8DE6F9
:1042A0001B4A18F0200F0395B44609928DF82F1081
:1042B0007FF471AF049918F0100F0A4640F0418264
:1042C00018F0400F00F03D8204320E88002704925F
:1042D0006AE79BF800306C2B00F0E98248F0100888
:1042E0005846A2E5049A134615680433002DC0F21F
:1042F000E68204939BF80030584696E59BF8003020
:1043000058462B2191E500BFA06A0800706A08009A
:10431000846A08009BF800300BF101002A2B00F0A2
:104320000F83A3F13002092A83464FF000063FF6BF
:104330007EAD1BF8013B06EB860602EB4606A3F1B9
:104340003002092AF5D946EAE67670E518F0200F22
:104350008DF82F1000F08382049A134604330493DF
:10436000029B1168DF171A463B46C1E9002325E589
:1043700058469BF8003000297FF457AD202154E5C2
:1043800048F0010858469BF800304EE503958DF83B
:104390002F10002B00F09C808DF840304FF0000370
:1043A00001268DF82F3010ABB14607931DE7019819
:1043B00000990DAA0893FFF793FC002840F08F8026
:1043C0000E99D4460F9A01F1010E089B1DE60E9935
:1043D0000F9A481C9DF82F306BB101320DF12F035D
:1043E000012107280F920E902360616000F3348151
:1043F000014608340130059B63B102320CA9022347
:1044000007280F920E9084E80A0000F334810146D9
:1044100008340130069B802B00F0D480C9EB0C07D8
:10442000002F2BDD102FAB4D1FDDA6461023019C66
:1044300007E001F1020C01460EF1080E103F102FAB
:1044400011DD481C103207280F92CEF80050CEF82C
:1044500004300E90EDDD6ABB103F102F4FF0010CC1
:104460001146D646EDDC744660463A4407280F9262
:1044700084E8A0000E903BDC0834013002EB090315
:10448000079A07280F9384E804020E903DDD002B65
:1044900040F03F8118F0040F0E9340F03081029BF2
:1044A000039A9642ACBF9B199B18029300230E936C
:1044B000544683E4204600990DAA0593FFF710FCAB
:1044C00068B90E99D6460F9A01F1010C059BB5E724
:1044D0000F9B23B1019800990DAAFFF701FC009BE7
:1044E0009B895B063FF523AD02982BB0BDE8F08FAA
:1044F000002A40F090814B46544607990122CDF89E
:104500006C90CDF83C901A910E9204F1080218F0CC
:10451000040F39D003998D1B002D35DD102D40F38C
:1045200000820E986C4F1024DDF80480DDF80090B6
:1045300006E000F1020E08460832103D102D10DD95
:10454000411C103307290F93176054600E91F0DD62
:10455000002B2AD1103D102D4FF0010E1846524667
:10456000EEDC2B44BEF1070F0F9317605560CDF8BA
:1045700038E009DD002B92D0019800990DAAFFF7D1
:10458000AFFB0028ABD10F9B029A03998E42ACBFC0
:10459000921952180292002B88D0019800990DAA06
:1045A000FFF79EFB002881D099E7404649460DAAB7
:1045B000FFF796FB002892D10E9852460F9B00F110
:1045C000010EBAE7039B9F1B002F7FF727AF102F29
:1045D00040F3B38120463F4D64461023844607E0F4
:1045E00001F1020E01460CF1080C103F102F11DDF5
:1045F000481C103207280F92CCF80050CCF8043039
:104600000E90EDDDC2B9103F102F4FF0010E114694
:10461000D446EDDC6346A4461C463A44BEF1070F7F
:104620000F9284E8A000CDF838E000F3EE80083463
:104630000EF101007146F1E6019800990DAA05936B
:10464000FFF74EFB00287FF44AAF0E99D4460F9A2D
:1046500001F1010E059BC8E7002A40F0C580059BCB
:10466000002B00F085800CAA02231A9208461B93A7
:104670001A465446CBE6002A40F0A5800120114698
:104680005446C7E603BB18F0010F1DD02AAB3022F9
:1046900003F8412DC3EB0A0907938FE4D14609982B
:1046A000330943EA0773390906F00F020F461E4625
:1046B000835C09F8013D56EA0703F1D14B46CDF87A
:1046C0001C90C3EB0A0979E4CDF81CA076E4022320
:1046D00045E400BF606A0800A06A0800002A40F0B4
:1046E000D5809DF82F30002B00F0AC8001230DF118
:1046F0002F0118461B931A461A91544678E6039ADE
:10470000951B002D52463FF709AFC8E65D46FFF7FF
:104710007CBB019800990DAAFFF7E2FA00287FF40C
:10472000DEAE52460F9BF2E6049900270A46043299
:104730000E68049213E404321E68002701230492D9
:104740000DE416680432049200272DE51E68043338
:10475000F717049332463B46C1E4019800990DAA2D
:10476000FFF7BEFA00287FF4BAAE5446FFF7C0BB8D
:104770000846544611464DE6D146CDF814C03046A1
:1047800039460A22002301F047FE303230463946CE
:1047900009F8012D00230A2201F03EFE06460F46CD
:1047A00056EA0703EBD1DDF814C087E7302B079BEF
:1047B00087D0013B1A4607933023C2EB0A0901F860
:1047C000013CFFF7FBBB019800990DAACDF814C07E
:1047D000FFF786FA00287FF482AE0E9954460F9AAE
:1047E000481CDDF814C015E6019800990DAACDF813
:1047F00020C0FFF775FA00287FF471AE0E99544679
:104800000F9A481CDDF820C0F5E5002A67D1012089
:104810001146544602E6019800990DAAFFF760FA86
:1048200000287FF45CAE0E9854460F9A013025E6BE
:104830002D25764267EB47078DF82F50E14601237F
:10484000FFF793BB059B114601205446002B3FF414
:10485000E5AD0CAA02238AE80C001A46D7E518F049
:10486000100F0BD118F0400F08D0049A13680432CF
:104870000492BDF808201A80FFF7A0BA049A1368C2
:1048800004320492029A1A60FFF798BA01980099CC
:104890000DAACDF820C0FFF723FA00287FF41FAE41
:1048A0000E9954460F9A481CDDF820C092E548F056
:1048B00020080BF101009BF80130FFF7B6BA6D42FA
:1048C00004935846FFF7C8BB07980495FFF7DAF939
:1048D0009DF82F5081464FF0000CFFF76FBB0198F9
:1048E00000990DAACDF814C0FFF7FAF900287FF45B
:1048F000F6AD0E9954460F9A481CDDF814C08DE5AC
:104900000E990F9A0131154FFFF79ABB062E144BE3
:1049100028BF4FF0060CE14604952CEAEC7607938D
:1049200063E40E990D4F01F1010E1AE6E14604957C
:1049300084469DF82F50FFF741BB8646094D6CE633
:10494000049A9BF8013016680432002E0492BFF6D8
:104950006CAA4FF0FF36FFF768BA00BFA06A0800E4
:10496000986A0800606A08002DE9F04588464F6E95
:10497000ADF26C4D1997D8F81C70B1F80CE0B1F895
:104980000EA00797D8F824701AAC4FF480652EF06B
:10499000020E002669460094049402950595ADF830
:1049A0000CE0ADF80EA0099706960546FFF7D4F97E
:1049B000041E07DB2846694600F02AF9B04218BFFA
:1049C0004FF0FF34BDF80C305B0605D5B8F80C305D
:1049D00043F04003A8F80C3020460DF26C4DBDE8C2
:1049E000F08500BF38B52F4B054618680C4610B14E
:1049F000836B002B36D0A28993B218070CD520699F
:104A0000A8B113F001021ED0636900225B42A361CA
:104A1000A260F0B1002038BDD9063AD5580724D499
:104A2000206942F00803A3819BB20028E9D103F476
:104A30002072B2F5007FE4D02846214600F0EEFC5B
:104A4000A3892069DDE7990758BF6269A260002841
:104A5000E0D1A3891A06DED543F04003A3814FF0CD
:104A6000FF3038BD00F068F9C5E7216B49B104F1AA
:104A70004003994203D0284600F036FAA289002369
:104A80002363206922F02402002392B284E8090003
:104A9000C7E742F0400209232B604FF0FF30A281AC
:104AA00038BD00BF30080720024B13B1024800F0A8
:104AB00005B87047000000004D4D08000146002079
:104AC0000246034601F0B4BB8B892DE9F0419AB24E
:104AD0000D46110780463CD46A6843F40063002AFF
:104AE000AB8165DDAE6A002E4BD09BB203F48052E1
:104AF000002192B2D8F80040C8F80010002A5BD01C
:104B00002A6D5F0705D569682B6B521A0BB1EB6BE9
:104B1000D21A4046E9690023B047461C56D0AB89FB
:104B20002A6923F400639BB200212A60DA04AB8176
:104B300069603BD4296BC8F8004011B305F140030C
:104B4000994202D0404600F0CFF900202863BDE82A
:104B5000F0812E69AEB191072C680CBF6B69002300
:104B60002E60A41BAB600AE0324623466F6A4046C3
:104B7000E969B8470028A4EB0004064404DD002CD2
:104B8000F2DC0020BDE8F081AB894FF0FF3043F04C
:104B90004003AB81BDE8F081AB892A6923F400634F
:104BA0009BB2AB81DB0469602A60C3D52865C1E78D
:104BB000EA6B002A96DCE4E701234046E969B04746
:104BC000431C024619D0AB89AE6A9AE7D8F80010A8
:104BD0000029E1D01D2907D0162905D0AB8943F063
:104BE0004003AB81BDE8F081AB89296923F4006300
:104BF0000022AB8185E806009CE7D8F80030002B46
:104C0000E1D01D2B01D0162BBED1C8F80040B8E76B
:104C100010B5044682B008B1836B53B1B1F90C00F2
:104C200008B902B010BD204602B0BDE81040FFF741
:104C30004BBF019100F080F80199EFE7014900F0C6
:104C4000BBBB00BFF96208002DE9F04F07463548AD
:104C50007D68002407F53B7204230321F863C7F83D
:104C6000E412C7F8E822C7F8E04283B02C606C6019
:104C7000AC606C66EC812C616C61AC61AB812146EF
:104C800005F15C000822FEF72BFFDFF89CB0BE6840
:104C9000DFF898A0DFF89890DFF8988001230922C8
:104CA000C5F820B0C5F824A0C5F82890C5F82C8018
:104CB000ED612146F381B28106F15C0034607460DD
:104CC000B460746634617461B46108220193FEF7C4
:104CD00007FFFD6812200222F661C6F820B0C6F870
:104CE00024A0C6F82890C6F82C802146A881EA8125
:104CF0002C606C60AC606C662C616C61AC6105F121
:104D00005C000822FEF7ECFE019BED61C5F820B0C7
:104D1000C5F824A0C5F82890C5F82C80BB6303B063
:104D2000BDE8F08F3D4C08006D6008009160080000
:104D3000C9600800E9600800836B03B17047FFF7A2
:104D400083BF00BF704700BF704700BF38B5084B36
:104D5000084DED1AAC1018BFED1805D0013C55F800
:104D6000043D9847002CF9D1BDE8384001F0AABEB7
:104D7000D06A0800D46A08002DE9F04182B00746E5
:104D80000E46144600F044FB012840D0384601A9E5
:104D9000324604F15C0301F0FFF9B0F1FF3F8046B9
:104DA0002ED000283BD09DF80410002509E0236890
:104DB00019702368013323600135A8452FD901AB51
:104DC000595DA368013B002BA360F0DAA26993420E
:104DD00006DB236819702368197801330A29EAD1A0
:104DE0003846224601F084F9A0F1FF30B0FA80F095
:104DF00040090028E0D04FF0FF3002B0BDE8F0815C
:104E0000A38943F04003A38102B0BDE8F081731E83
:104E1000FE2BBBD8F1B280468DF80410C5E73046B2
:104E200002B0BDE8F08100BF938913F4005F0BD19D
:104E300010B4546E43F4005344F400545466938108
:104E40005DF8044BFFF798BFFFF796BFF8B50C4627
:104E5000224F064600F004FFBB685D6825F003059D
:104E6000291B01F6EF7121F47F6121F00F01A1F5FB
:104E70008054B4F5805F07DB3046002101F0E4F890
:104E8000BB682B44984204D0304600F0EBFE002073
:104E9000F8BD3046614201F0D7F801300DD0104B1B
:104EA000BA6819682D1B45F001053046091B55608D
:104EB000196000F0D7FE0120F8BD3046002101F056
:104EC000C3F8BA68831A0F2BDEDD064C0449246848
:104ED00043F00103001B53600860D5E75808072022
:104EE000940D0720640C072000294ED02DE9F041D5
:104EF0000C46804600F0B4FE54F8047C6249A4F1EC
:104F0000080527F00102AB188E6858689E4220F011
:104F100003005AD0FE0758600BD454F8087C01F106
:104F2000080EED1BAC683A44744567D0EF68E76043
:104F3000BC601C186468E4070CD4544F9C6802449D
:104F4000BC427CD0D86842F00103E06084606B60B2
:104F5000AA5003E042F001036B60AA50B2F5007F53
:104F600014D2D20801EBC20301244868921004FA5B
:104F700002F29C681043AC60EB6048609D60E560A5
:104F80004046BDE8F04100F06DBE7047530A042B67
:104F900047D8930903F13804600001EB800083686F
:104FA0003949834243D0596821F00301914202D923
:104FB0009B689842F7D1DA68EA60AB60404695603A
:104FC000DD60BDE8F04100F04DBEFF07024407D4AC
:104FD00054F8084C2D1BEB68A8682244C360986005
:104FE0002B4B42F001001B6868609A428D60C7D36A
:104FF000284B40461968FFF729FFC1E7191849688F
:10500000C90709D4D96802449B6842F00100D960FD
:105010008B606860AA50B3E742F001036B60AA504E
:10502000AEE7142B14D803F15B046000B5E74A68BF
:10503000A4100120A04002434A601A46BCE742F097
:1050400001034D610D61EC60AC606B60AA5097E7A5
:10505000542B04D8130B03F16E0460009DE7B3F5E5
:10506000AA7F04D8D30B03F17704600095E740F2E0
:105070005450834204D8930C03F17C0460008CE705
:10508000FC207E2489E700BF58080720600807201D
:10509000600C0720900D07209368002B00F0B18072
:1050A0002DE9F04FB1F80CE083B01EF0080F0C466C
:1050B0008146164628D00B6933B30EF002081FFA5A
:1050C00088F0356880B34FF0000BD846DFF8E4A2D3
:1050D000B8F1000F00F08F80D0454346484628BF06
:1050E0005346E1695A46676AB847002840F3A880EA
:1050F000B36883441B1AC0EB0808B360002BE7D1E8
:10510000002003B0BDE8F08F48462146FFF76AFC57
:10511000002840F04681B4F80CE035680EF0020833
:105120001FFA88F00028CED11EF0010B40F09180CC
:10513000D846B8F1000F58D01EF4007FA76862D09F
:10514000B845BA46C0F0C2801EF4906F00F0C0802F
:1051500067692169236807EB47075B1A07EBD77775
:10516000581C7F10404487423A463CBF07463A46A7
:105170001EF4806F009300F0FB801146484600F05B
:10518000C5F9009B8246002800F00E811A4621696D
:10519000009300F08BFCA289009B22F4906242F005
:1051A0008002A2810AEB0300C4F810A0FB1A676119
:1051B000C24647462060A3605246594600F0ECFCC8
:1051C000A0682268C01BA060404602EB0A0323606F
:1051D000B36883441B1AC0EB0808B360002B8FD060
:1051E000B4F80CE0B8F1000FA6D1D5F800B0D5F8AE
:1051F000048008359DE7D5F800B0D5F8048008355F
:1052000066E70020704720682369984203D86269E6
:10521000904580F08580474528BF474659463A4625
:1052200000F0BAFCA3682268DB1B3A44A36022604A
:10523000002B49D148462146FFF7EAFC002843D01D
:10524000A38943F040034FF0FF30A38103B0BDE8D2
:10525000F08F8046834682460090BAF1000F2BD033
:10526000009B002B4FD0D045434628BF53462068B3
:1052700021691F468842D4F808E0626903D90EEB21
:10528000020C63455EDC934224DB1346676A4846A2
:10529000E1695A46B847071ED2DDB8EB070829D0A6
:1052A000B368BB44DB1BC7EB0A0AB360002B3FF4B7
:1052B00027AFBAF1000FD3D10023D5F800B0D5F84D
:1052C00004A000930835C8E7384681E74746C24640
:1052D000206871E71A465946019300F05DFCA26808
:1052E0002168019BB8EB0708A2EB03020B44A26004
:1052F0002360D5D148462146FFF78AFC00289FD17C
:10530000CDF80080CCE758460A21524600F084FBD5
:10531000002841D001300123CBEB00080093A2E725
:105320006FF00043434528BF434693FBF2F3676A9F
:1053300003FB02F34846E1695A46B84700283FF7A5
:1053400047AF7DE762465946CDF804C000F024FC23
:105350002368DDF804C04846634423602146FFF714
:1053600057FCDDF804C000287FF46AAF674694E775
:10537000484600F079FC009B824600287FF412AF7B
:1053800048462169FFF7B0FDA3890C2223F0800372
:105390009BB2C9F8002054E701230AF101080093E9
:1053A00061E74FF0FF30ACE60C23C9F80030A38969
:1053B00047E700BF00FCFF7F2DE9F84310F5387682
:1053C0001ED0884607464FF000097568B468013D55
:1053D00010D4A389013D012B08D9B4F90E30013353
:1053E00004D038462146C04749EA00096B1C04F145
:1053F0006804EED13668002EE7D14846BDE8F88350
:10540000B1464846BDE8F883004870473408072095
:10541000014B1868704700BF540807208B899AB267
:1054200012F0020F3CD1F0B50C46B1F90E1091B05C
:105430000029054619DB01AA00F0A0FF002812DBB5
:10544000029B03F47043A3F50057B7FA87F7B3F54F
:10545000004F4FEA57172AD0A3894FF4806643F4D0
:105460000063A3810BE0A3899AB212F0800F43F48A
:105470000063A3810CBF4FF48066402600272846B6
:10548000314600F043F8A38940B31A4A43F0800341
:10549000EA63A3812060206166619FB911B0F0BD0D
:1054A00001F1430301220B600B614A617047124B0B
:1054B000A26A9A42D0D1A3894FF480663343A38174
:1054C000E664DCE72846B4F90E1000F06BFF002814
:1054D000E4D0A38943F00103A381DFE79A05DDD47B
:1054E00004F1430243F002030121A38122602261FF
:1054F0006161D3E73D4C0800C9600800024B0146DA
:10550000186800F003B800BF300807202DE9F04FFD
:1055100001F10B05162D83B0064627D935F0070596
:1055200000F1B680A94200F2B38000F099FBB5F516
:10553000FC7F22D2BC4FE80807EBC003DC689C422A
:1055400000F0BC816368E16823F0030323445A68D8
:10555000A56842F00102E96030468D605A6000F0B3
:1055600081FB0834204603B0BDE8F08F102900F21B
:105570008F8000F075FB1025DCE7680A00F08F8053
:10558000042800F24781A80938304100A64F07EBF4
:105590008101CC68A14206D10CE0002A80F2828011
:1055A000E468A14206D0636823F003035A1B0F2A64
:1055B000F3DD013801309C493C6901F1080E744566
:1055C00000F07181636823F003035A1B0F2A00F374
:1055D0005781002AC1F814E0C1F810E066DAB3F58B
:1055E000007F80F02D81DB0801EBC3084FEAA30C9C
:1055F0004A68012303FA0CF3D8F808C01343C4F82F
:1056000008C0C4F80C804B60C8F80840CCF80C40C7
:105610008210012494409C4255D8234206D120F0A8
:1056200003006400234200F10400FAD007EBC00835
:10563000C4468146DCF80C309C4507D135E1002991
:1056400080F24581DB689C4500F02F815A6822F08A
:105650000302511B0F29F2DD1C46DA6854F808CF0B
:1056600045F0010941F001081D44C3F8049030469B
:10567000CCF80C20C2F808C07D613D61C5F80CE093
:10568000C5F808E0C5F80480695000F0EBFA69E756
:10569000002420460C23336003B0BDE8F08F7E2148
:1056A0003F2073E723445A68E16851E723445A686E
:1056B000304642F001025A60083400F0D3FA204626
:1056C00003B0BDE8F08FBC68636823F0030845456C
:1056D00004D8C5EB08030F2B00F38C80534BDFF885
:1056E0005CA11A68DAF800302A44013304EB080B95
:1056F00000F0518102F580520F3222F47F6222F0D5
:105700000F0211463046019200F09EFCB0F1FF3FBF
:105710008146019A00F04881834500F2EF80444BB6
:10572000CB4519681144196000F04381DAF8000094
:10573000DFF808E101301BBFCBEB090B5944CEF871
:105740000090196019F0070100F00881C1F108000C
:10575000C1F58051814408314A44C2F30B02C2EBC7
:10576000010A51463046019300F06EFC431C019B38
:1057700000F02D81C9EB0002524442F00102196889
:10578000BC425144C7F808901960C9F80420DFF8FA
:10579000A0A016D0B8F10F0F40F2EF806268A8F118
:1057A0000C0323F0070302F00102E0184FF0050E8E
:1057B0001A430F2B6260C0F804E0C0F808E000F262
:1057C0000A811C4BBC681A68914288BF19601A4B49
:1057D0001A689142626888BF196022F003029542FC
:1057E000A2EB050301D80F2B04DC304600F03AFA97
:1057F0000024B7E645F0010243F00103254462604E
:105800003046BD6008346B6000F02CFA204603B0CF
:10581000BDE8F08F142869D9542800F29880280B2D
:105820006E304100B2E600BF58080720900D0720F7
:10583000940D07208C0D0720880D0720640C07208D
:105840005A0A042A55D9142A00F2A7805B324FEA7B
:10585000420C07EB8C0CDCF80810DFF8B8816145CE
:105860007FD04A6822F00302934202D289688C45B5
:10587000F7D1CA687B68E260A1609460CC60C7E63B
:1058800045F0010742F001032544676030464D6151
:105890000D61C5F80CE0C5F808E06B60AA5008344B
:1058A00000F0E0F95EE64B68B2E609F1010919F093
:1058B000030F0CF1080C7FF4BDAE2CE004F10803DB
:1058C0006469A34208BF02303FF475AE3AE61C4655
:1058D0001A445168DB6854F8085F41F001015160D7
:1058E0003046EB609D6000F0BDF93BE65B30410067
:1058F0004CE69A0938324FEA420CAAE7BC42454BC3
:105900003FF40DAF9C68626822F0030267E7D8F8A5
:10591000008098457CD110F0030FA8F1080300F136
:10592000FF30F4D17B6823EA04037B6064009C426F
:105930003FF6C9AE002C3FF4C6AE234248467FF482
:1059400075AE6400234200F10400FAD06EE6B0F5B3
:10595000AA7F18D8E80B7730410017E64FF4805142
:10596000FAE6D8F8043092104FF0010C0CFA02F26B
:105970001343C8F804300A467DE70123C9F8043010
:105980004C4600222BE740F2545398421CD8A80CF6
:105990007C304100FAE51032B3E6542A23D81A0BC2
:1059A0006E324FEA420C54E7BC68626822F0030290
:1059B00015E7CBF30B0000287FF4B8AE4244BB6878
:1059C00042F001025A60FCE6FC217E20DEE5012265
:1059D0004FF0000AD3E604F108013046FFF784FADD
:1059E000DAF80010EDE6B2F5AA7F04D8DA0B7732C8
:1059F0004FEA420C2DE740F254518A4204D89A0CE7
:105A00007C324FEA420C24E74FF0FC0C7E2220E768
:105A10007B688BE758080720830770B4C9B240D071
:105A2000541E002A3FD003788B4218BF431C05D177
:105A30001CE0ECB10278013C8A4217D013F0030F4E
:105A4000184603F10103F4D1032C14D884B1037870
:105A50008B420BD00519431C02E002788A4205D024
:105A6000AB42184603F10103F7D1002070BC704728
:105A7000204670BC7047024641EA012646EA0646C7
:105A8000136810467340A3F1013525EA030313F0B0
:105A9000803F02F10402D9D1043C032C1046EFD818
:105AA000D4E71446D0E71046E0E700BF844641EA59
:105AB000000313F0030349D1403A23D30B6803607A
:105AC0004B6843608B688360CB68C3600B6903617C
:105AD0004B6943618B698361CB69C3610B6A036264
