S013000052656E616C79785F444D312E737265630D
S21408000030480720D1B00900C9B00900C9B00900B6
S214080010C9B00900C9B00900C9B00900000000004D
S214080020000000000000000000000000C9B0090041
S214080030C9B0090000000000C9B00900C97009006D
S214080040C9B00900C9B00900C9B00900C9B009009B
S214080050C9B00900C9B00900C9B00900C9B009008B
S21408006011700900C9B009000000000009A90900BC
S21408007021A9090039A9090051A9090000000000B2
S21408008000000000C9B00900C9B00900C9B00900DD
S214080090C9B00900C9B00900C9B00900C9B009004B
S2140800A0C9B0090000000000C9B009004D70090079
S2140800B071BF0900C9B00900A5700900C9B00900D8
S2140800C0C9B0090081700900C9B00900C9B00900A3
S2140800D0C9B00900C9B00900C9B00900C9B009000B
S2140800E0C9B00900C9B00900C9B0090059620900B9
S2140800F0C9B0090010B5054C237833B9044B13B1C1
S2140801000448AFF300800123237010BDF4150720C0
S21408011000000000CC8A0A00084B10B51BB108493D
S2140801200848AFF300800848036803B910BD074BBA
S214080130002BFBD0BDE81040184700BF00000000A9
S214080140F8150720CC8A0A00CC8A0A0000000000AE
S21408015080B582B000AF78607B68072B31D801A2E3
S21408016052F823F0C1010800850108008D01080037
S214080170950108009D010800A5010800AD010800CA
S214080180B70108000020114B98471AE001200F4BD2
S214080190984716E000200E4B984712E010200C4BAC
S2140801A098470EE020200A4B98470AE03E21002098
S2140801B0084B984705E03E210120064B984700E08B
S2140801C000BF00BF0837BD4680BD00BFE9A90900CB
S2140801D055AA0900F5AA090080B582B000AF786074
S2140801E07B68072B26D801A252F823F00D020800D8
S2140801F01102080011020800230208002302080062
S214080200230208002302080023020800012312E044
S2140802100B4B98470346002B14BF01230023DBB281
S21408022009E0084B98470346002B14BF0123002318
S214080230DBB200E0002318460837BD4680BD00BF85
S21408024021AA09006DAB090080B483B000AF7860BE
S2140802507B68072B25D801A252F823F07D020800F8
S21408026083020800890208008F020800930208002B
S214080270970208009B0208009F0208004FF4FA4302
S21408028010E04FF400430DE04FF400430AE0084B3B
S21408029008E0084B06E0084B04E0074B02E0064B74
S2140802A000E0002318460C37BD4680BC704700BFE8
S2140802B000093D0000127A00001BB70080B582B026
S2140802C000AF0346FB7100BFFB791846054B9847FD
S2140802D0034683F00103DBB2002BF5D100BF0837D5
S2140802E0BD4680BDD901080080B586B000AFF8606D
S2140802F07A603B600B46FB727B68002B07D13B6835
S214080300002B04D1FB684FF470021A6019E0FB7AE0
S21408031018460E4B984702467B68B2FBF3F37B61A0
S2140803207B693A6802FB03F37B613B68013B1A046E
S214080330074B13407A68D2B2134343F47C52FB68E7
S2140803401A6000BF1837BD4680BD00BF49020800C6
S2140803500000FF0780B582B000AF786039603B6860
S214080360002B08D1094B9847094A7B681B6843F05D
S2140803700053936205E0064A7B681B6843F48033A3
S214080380D36100BF0837BD4680BD00BF85AB0900F6
S21408039000060E4080B582B000AF78607B68002B00
S2140803A003D1054B9847034602E0044B984703469B
S2140803B018460837BD4680BD9DAB0900B5AB090099
S2140803C080B582B000AF0346FB71FB79033B042B74
S2140803D008D8FB791846064B9847FB791846054B0C
S2140803E0984700E000BF00BF0837BD4680BD00BF85
S2140803F051010800BD02080080B582B000AF7860E1
S21408040000BF7868044B98470346002BF9D00023B2
S21408041018460837BD4680BD9503080080B500AF6E
S2140804200620044B984702461346DB009B1A5B00DF
S214080430184680BD4902080080B500AF024B9847B1
S21408044003465B08184680BD1D04080090B583B0B7
S21408045000AF104B9847034618460F4B98470620A0
S2140804600E4B9847381D0E23012206210C4CA04738
S2140804703B1D002118460B4B984700200A4B98470F
S21408048010200A4B98470A4B984700BF0C37BD46C2
S21408049090BD00BF39040800FDB20900C10308007A
S2140804A0E902080055030800F903080069A90900CD
S2140804B079B1090080B584B000AFF860B9607A6099
S2140804C07B681B0203F47062BB6813431946F8681E
S2140804D0034B9847002318461037BD4680BD00BF1B
S2140804E0B500072080B584B000AF786039607B68B7
S2140804F01B6823F47063FB603B681B0203F470629E
S214080500FB68134319467868024B984700BF1037B4
S214080510BD4680BDB500072080B483B000AF7860C4
S2140805207B681B6803F470631B0A18460C37BD46C5
S21408053080BC704780B586B000AFF860B9607A6056
S214080540BB680E2B02D0BB680F2B02D14FF0FF33CF
S21408055020E0FB68114A934214BF01230023DBB254
S2140805607B610F4B1B681A460E4B1A600D4B1A68B8
S2140805707B681B0223F07F4323F0FF03B968C9B2E8
S2140805800B4343F0B443194678699047FB689B6869
S21408059003F0060318461837BD4680BD000A0E400D
S2140805A0080010001016072080B483B000AF7860EB
S2140805B07B68DB6818460C37BD4680BC704700BFB2
S2140805C080B582B000AF78607868034B984700BF64
S2140805D00837BD4680BD00BFCDAB090080B582B0E8
S2140805E000AF78607B68054A934202D11820044B16
S2140805F0984700BF0837BD4680BD00BF0080004052
S214080600C105080080B483B000AF78607B68082214
S2140806101A607B6820221A607B6804221A6000BF72
S2140806200C37BD4680BC704780B584B000AF786094
S21408063039600023FB607B684FF0FF329A627B6864
S2140806401B6A78680E4B984778680E4B98473B6845
S21408065059683B681B681A4678680B4B98470346E8
S214080660012B01D10123FB603B685B7A012B02D189
S2140806707B6840221A60FB6818461037BD4680BD66
S21408068005070800050608008D06080080B487B030
S21408069000AFF860B9607A6000237B61BB68174AD0
S2140806A0934201D9012324E0BB685B007A68B2FB59
S2140806B0F3F3043B3B6105E07B6901337B613B69EF
S2140806C05B083B613B69FF2B02D97B69062BF3D994
S2140806D00B4A3B6913603B69DAB23B691B029BB263
S2140806E01A437B691B0403F4E0231A43FB681A6168
S2140806F0002318461C37BD4680BC7047801A060083
S2140807001416072080B483B000AF78607B68802218
S2140807101A607B681B6B00BF0C37BD4680BC7047F1
S21408072080B487B000AFF860B9607A603B60BB6899
S214080730B3F5402F0BD3174B7B61BB68A3F540235B
S2140807401B0A7B82BB689BB2DBB23B820AE0124B79
S2140807507B61BB68A3F500231B0A7B82BB689BB240
S214080760DBB23B82FB68002B02D0FB687A691A6012
S2140807707B68002B02D07B687A8A1A803B68002B3D
S21408078002D03B683A8A1A8000BF1C37BD4680BC38
S214080790704700BF000C0E40000A0E4080B487B0B9
S2140807A000AFF8607B600B467B8113463B81FB6895
S2140807B00D4A934206D17B8903F500631A023B89EA
S2140807C0134405E07B8903F540631A023B8913440A
S2140807D07B617B68002B02D07B687A691A6000BF51
S2140807E01C37BD4680BC7047000A0E4080B487B0F0
S2140807F000AFF860B9607A603B60FB6823F47F530B
S21408080023F03F037B61BB6823F47F5323F03F0349
S21408081003F57F533F333B617B68002B02D07B6830
S2140808207A691A603B68002B02D03B683A691A60FE
S21408083000BF1C37BD4680BC704700BF80B582B07D
S21408084000AF786039603A6879680648064B98477A
S2140808503A6879680548044B9847002318460837CD
S214080860BD4680BD000A0E40B5040800000C0E40C8
S21408087090B58FB000AFF860B9607A603B604A4BBD
S214080880BB6207F1140307F1160207F11800F968AE
S214080890464CA047BB691846454B98477862BB69E3
S2140808A006211846434B984771E0BB8AC3F5807209
S2140808B07B68934228BF13463B62B869F98A07F1FA
S2140808C0100300223C4CA047BB8A5B429AB23B6AA4
S2140808D09BB2D31A9BB203F58073FB833B69194618
S2140808E0BB8A1A46B86A354B9847BB8A1A46BB6A0B
S2140808F013443A6AB9681846304B9847BB8A1A4672
S2140809003B6A1344BA6AD018BB8A1A463B691A442B
S2140809103B6A13441946FB8B1A46284B98473B6993
S214080920FB6200233B630AE0FB6A1A1DFA621E4953
S2140809303A6B51F822201A603B6B01333B633B6BE2
S2140809403F2BF1D93B68002B07D0BB69FA8A0321F5
S21408095018461B4B9847786306E0BB69FA8A01215C
S2140809601846174B984778637B6B002B01D07B6B38
S21408097016E0BA683B6A1344BB607A683B6AD31AC7
S2140809807B60FB8A01339BB2FB820023BB827B68B9
S214080990002B8AD1BB69796A1846064B984700230C
S2140809A018463C37BD4690BD181607202107080094
S2140809B019050800E50408009D070800F9690A00FB
S2140809C03505080090B58BB000AFF860B9607A605E
S2140809D03B604023FB8407F1140307F11802B9684B
S2140809E0F8681C4CA0477B68002B02D0BA697B6865
S2140809F01A603B68002B02D07A693B681A60B969AE
S214080A0007F1120207F11C000023134CA04779696E
S214080A1007F11002002300200F4CA04710E0FB69E6
S214080A207A8A082118460D4B984738623B6A002B8D
S214080A3001D03B6A09E07A8AFB8C13449BB27B821E
S214080A407A8A3B8A9A42EAD3002318462C37BD4650
S214080A5090BD00BFED07080021070800350508000F
S214080A6090B58BB000AFF860B9607A603B60402301
S214080A70FB8407F1140307F11802B968F8681C4CE0
S214080A80A0477B68002B02D0BA697B681A603B686F
S214080A90002B02D07A693B681A60B96907F112021E
S214080AA007F11C000023134CA047796907F11002D0
S214080AB0002300200F4CA04710E0FB697A8A092122
S214080AC018460D4B984738623B6A002B01D03B6AA4
S214080AD009E07A8AFB8C13449BB27B827A8A3B8A2B
S214080AE09A42EAD3002318462C37BD4690BD00BF6D
S214080AF0ED070800210708003505080080B582B014
S214080B0000AF78607B68022B01D9112312E0786861
S214080B100A4B98470346012B01D100230AE07A685E
S214080B200B210748074B98470346002B01D10023A3
S214080B3000E0102318460837BD4680BD490B08005C
S214080B40000A0E403505080080B584B000AF78600E
S214080B507B68022B01D9112319E000220D210E48CB
S214080B600E4B98470346002B01D010230FE00A4887
S214080B700B4B9847F86001227B6802FA03F31A4683
S214080B80FB681340002B01D0012300E00023184621
S214080B901037BD4680BD00BF000A0E403505080068
S214080BA0A905080080B500AF0020024B9847034609
S214080BB0184680BDFD0A080080B582B000AF042341
S214080BC0FB71104B98470346FB71FB79002B01D04D
S214080BD00D4B98470D4B98470346FB71FB79002B46
S214080BE001D0094B98470A4B98470346FB71FB7997
S214080BF0002B01D0044B9847002318460837BD46FB
S214080C0080BD00BF150C0800758E0800A5000900F9
S214080C10E5FB080080B400AF3B4B0D221A803A4B28
S214080C200E225A80384B00229A80374B42F21072B6
S214080C30DA80354B354A9A60334B354ADA60324BA0
S214080C40324A1A61304B324A5A612F4B314A9A61FE
S214080C502D4B314ADA612C4B2E4A1A622A4B2C4A03
S214080C605A62294B2D4A9A62274B294ADA62264B42
S214080C702B4A9A63244B2B4ADA63234B2A4A1A6474
S214080C80214B284A5A64204B274A9A641E4B254A09
S214080C90DA641D4B254A1A651B4B42F21072A3F8FC
S214080CA05420194B0022A3F85620174B42F2107214
S214080CB0A3F85820144B0022A3F85A20124B42F2ED
S214080CC01072A3F85C20104B0022A3F85E200E4B8F
S214080CD00522A3F860200C4B1422A3F862200A4BC6
S214080CE01E22A3F86420084B0522A3F86620064BAC
S214080CF01E22A3F86820044B0522A3F86A200023C6
S214080D001846BD4680BC7047F42007200000FA430A
S214080D10000096C30000C843000048C300007A4499
S214080D20000014420000C8410000A04200003442FF
S214080D30F0B58BB000AF042387F827300023FB807C
S214080D40994B5B8C1A4640F6E44303FB02F3002BF0
S214080D5001DA03F6FF731B131A46944B104698479E
S214080D6003463B62924B386A984703461BB21846BE
S214080D70904B9847904B93F83A30002B17D00522A3
S214080D808E4918208E4B9847034687F8273097F8E1
S214080D902730002B01D08B4B9847874BB3F9382068
S214080DA0824B104698470246874B1A6038E03B1D30
S214080DB019460E20854B9847BB8847F60C62934227
S214080DC009D9BB88A3F58032784B10469847024667
S214080DD07D4B1A6006E0BA887D4B10469847024657
S214080DE0794B1A60784B1A687A4B104698477A4CB3
S214080DF069A3D3E90023A04703460C4618462146B4
S214080E00764C67A3D3E90023A04703460C46194649
S214080E102246734B08461146984702466A4B1A60A4
S214080E20614B9B8C1A4640F6E44303FB02F3002B07
S214080E3001DA03F6FF731B131A465C4B10469847F5
S214080E4003463B625A4B386A984703461BB2184615
S214080E50644B9847584B93F83E30002B17D0052222
S214080E6061491820564B9847034687F8273097F865
S214080E702730002B01D0534B98474F4BB3F93C20F3
S214080E804A4B104698470246584B1A6038E0BB1C37
S214080E9019460E204D4B98477B8847F60C629342BE
S214080EA009D97B88A3F58032404B104698470246FE
S214080EB04E4B1A6006E07A88454B1046984702461D
S214080EC04A4B1A60494B1A68424B10469847424CA0
S214080ED031A3D3E90023A04703460C46184621460B
S214080EE03E4C2FA3D3E90023A04703460C461946D9
S214080EF022463B4B08461146984702463B4B1A602B
S214080F00294BDB8C1A4640F6E44303FB02F3002B1E
S214080F1001DA03F6FF731B131A46244B104698474C
S214080F2003463B62224B386A984703461BB218466C
S214080F302F4B9847204B93F84230002B17D00522AA
S214080F402C4918201E4B9847034687F8273097F8F1
S214080F502730002B01D01B4B9847174BB3F940207E
S214080F60124B104698470246234B1A606BE03B46E6
S214080F7019460E20154B98473B8847F60C62934255
S214080F803CD93B88A3F58032084B10469847024662
S214080F90194B1A6039E000BF1844A4A65D4CB73F49
S214080FA062105839B4BC7E401C220720E9640A0047
S214080FB01D690A00B9430800B825072054850A00A9
S214080FC005B80900758E080030170720A1E6080046
S214080FD0E1640A00695C0A00115D0A00AD590A005E
S214080FE0D5620A00C94408005C850A003417072041
S214080FF0D945080064850A00381707203A88884BC0
S214081000104698470246874B1A60864B1A68864BE6
S21408101010469847854C7EA3D3E90023A04703468D
S2140810200C4618462146824C7BA3D3E90023A047EA
S21408103003460C46194622467E4B084611469847F4
S2140810400246784B1A607C4B1B8A1A4640F6E443E5
S21408105003FB02F3002B01DA03F6FF731B131A4691
S214081060764B1046984703463B62754B386A984756
S21408107003461BB21846734B9847734B93F82E30AB
S214081080002B0ED0052271491820714B98476E4BDD
S214081090B3F92C20694B1046984702466D4B1A60E8
S2140810A016E06C4B1A686C4B6C491046984703461A
S2140810B018466B4B1A686B4B1146984703461A46F8
S2140810C0694B6A491046984703461A46614B1A60A8
S2140810D0594B5B8A1A4640F6E44303FB02F3002B9F
S2140810E001DA03F6FF731B131A46544B104698474B
S2140810F003463B62524B386A984703461BB218466B
S2140811005B4B9847504B93F83230002B0ED0052295
S2140811104E4918204E4B98474B4BB3F93020474B57
S214081120104698470246534B1A6016E0514B1A6809
S214081130494B4A4910469847034618464E4B1A6884
S214081140484B1146984703461A46474B47491046A8
S214081150984703461A46474B1A603B4B93F84A3063
S214081160002B0ED0072245491820394B9847364B96
S214081170B3F94820314B104698470246404B1A6050
S21408118011E0BB1D194612203E4B9847FA88244B9F
S214081190104698470246344B3B4910469847034644
S2140811A01A46374B1A60284B93F84E30002B0ED051
S2140811B0072236491820264B9847234BB3F94C206C
S2140811C01E4B104698470246314B1A6011E0BB1D6D
S2140811D0194613202B4B9847FA88114B1046984708
S2140811E00246214B28491046984703461A46284B7C
S2140811F01A60154B93F85230002B4DD0124BB3F9AA
S21408120050200E4B104698470246224B1A6055E06F
S2140812101844A4A65D4CB73F62105839B4BC7E404B
S214081220E1640A0038170720695C0A00115D0A00A5
S214081230AD590A00D5620A001C220720E9640A0094
S2140812401D690A00B5400800B82507206C850A0005
S21408125005B80900EC20072091650A000000444202
S2140812606021072081630A00F9660A0000004842E8
S214081270354208002C1707207417072074850A00C3
S2140812803C170720A1E60800000020417C850A00DC
S2140812904017072044170720BB1D19461420804B0B
S2140812A09847FA887F4B1046984702467E4B7F49F8
S2140812B01046984703461A467D4B1A607D4B9B7F1F
S2140812C0002B0ED005227C4918207C4B9847794B7A
S2140812D0B3F91C207A4B104698470246794B1A6099
S2140812E0C1E0BB1D194607206D4B98474FF0000319
S2140812F0FB614FF00003BB61FB88734AA2FB032324
S214081300DB089BB2FB80FB88322B40F2A980FB8867
S2140813106E4AA2FB03235B099BB21A46684B10462B
S214081320984703467B616A4B78699847694C50A38F
S214081330D3E90023A04703460C461D462646644BC1
S2140813407869984702460B46624C28463146A047BD
S21408135003460C461D4626465D4B786998475D4C05
S21408136045A3D3E90023A04703460C461A4623465E
S214081370594C28463146A04703460C46184621468F
S214081380554C3FA3D3E90023A04703460C4618460E
S2140813902146514C3CA3D3E90023A04703460C46FC
S2140813A0194622464D4B08461146984703463B6168
S2140813B04B4B4C49386998470346FB60444BF868E2
S2140813C0984705460E463A4B1A68374B3749104633
S2140813D0984703461A463E4B10469847424C4FF0ED
S2140813E00002424BA04703460C4618462146394C95
S2140813F027A3D3E90023A04703460C4618462146F0
S214081400354C4FF000023A4BA04703460C461A46A6
S2140814102346384C28463146A04703460C4619460C
S21408142022462E4B0846114698470346BB60284B73
S214081430B8689847274C18A3D3E90023A047034663
S2140814400C4619462246254B084611469847034639
S214081450BB60154B1549B868984703463B6102E0E0
S2140814604FF000033B6100BF18462C37BD46F0BD61
S2140814702D431CEBE2361A3FFCA9F1D24D62A03F81
S2140814801F85EB51B81EED3F9A9999999999D93FBE
S2140814901B2FDD240681953F333333333333154012
S2140814A0A1E60800E1640A00F9660A000000204187
S2140814B044170720B825072084850A0005B80900C0
S2140814C0E9640A0048170720CDCCCCCC1F85EB5121
S2140814D0695C0A00115D0A00AD590A00D5620A0067
S2140814E091650A000000C842A9590A000000394060
S2140814F00000F03F655F0A0080B582B000AF974BEA
S21408150098470346FB71FB79002B01D0944B98470C
S214081510944B93F8DE31002B33D0934BB3F852300C
S214081520002B2AD08F4B012283F8D2218F4B1B78B1
S2140815308E4A0133DB0013441D229A80894B93F8A8
S214081540DD310133DAB2874B83F8DD21884B01227F
S2140815501A70884B1D221A70844B1B781A46834BC8
S21408156013442E229A70844B98470346FB71FB79E6
S214081570002B06D07A4B984703E07A4B042283F870
S214081580D221784B93F89E32002B49D0754B93F8AE
S2140815909132012B04D1744B93F84530002B09D1B6
S2140815A0704B93F89132002B34D16F4B93F845303B
S2140815B0002B2FD16B4B93F89232012B2FD0694B0F
S2140815C0012283F89222694B1B78684A0133DB00B4
S2140815D0134429229A80634B93F89D320133DAB27A
S2140815E0604B83F89D22624B01221A70614B2922B8
S2140815F01A705E4B1B781A465C4B13442E229A7060
S2140816005D4B98470346FB71FB79002B07D0544B7C
S214081610984704E0534B042283F8922200E000BF68
S214081620504B93F8AE32002B49D04E4B93F8A1326C
S214081630012B04D14C4B93F84530002B09D1494B6C
S21408164093F8A132002B34D1474B93F84530002B42
S2140816502FD1444B93F8A232012B2FD0414B0122B5
S21408166083F8A222414B1B78404A0133DB0013441F
S21408167029229A803B4B93F8AD320133DAB2394BC4
S21408168083F8AD223A4B01221A703A4B2A221A7076
S214081690364B1B781A46354B13442E229A70364B17
S2140816A098470346FB71FB79002B07D02C4B9847CD
S2140816B004E02C4B042283F8922200E000BF294B5A
S2140816C093F8BE32002B5AD0264B93F8B132012B32
S2140816D004D1254B93F84630002B09D1214B93F8BB
S2140816E0B132002B34D1204B93F84630002B2FD143
S2140816F01C4B93F8B232012B40D01A4B012283F8C8
S214081700B2221A4B1B78194A0133DB0013442B22EA
S2140817109A80144B93F8BD320133DAB2114B83F832
S214081720BD22134B01221A70124B2B221A700F4B34
S2140817301B781A460D4B13442E229A700E4B984768
S2140817400346FB71FB79002B18D0054B984715E02C
S214081750044B042283F8B22211E000BF310D0800C2
S214081760758E0800FC1C07201C220720B8220720BC
S21408177029170720F0200720152D080000BF984BD2
S21408178093F8CE32002B49D0954B93F8C132012BF3
S21408179004D1944B93F84630002B09D1904B93F81C
S2140817A0C132002B34D18F4B93F84630002B2FD103
S2140817B08B4B93F8C232012B2FD0894B012283F82A
S2140817C0C222894B1B78884A0133DB0013442C223B
S2140817D09A80834B93F8CD320133DAB2804B83F884
S2140817E0CD22824B01221A70814B2C221A707E4B16
S2140817F01B781A467C4B13442E229A707D4B9847CA
S2140818000346FB71FB79002B07D07B4B984704E017
S214081810734B042283F8C22200E000BF704B93F893
S2140818200E32002B32D06F4B1B8B002B2AD06C4B02
S214081830012283F802226C4B1B786B4A0133DB00CB
S214081840134420229A80664B93F80D320133DAB29D
S214081850634B83F80D22654B01221A70644B2022D5
S2140818601A70614B1B781A465F4B13442E229A70E7
S214081870604B98470346FB71FB79002B06D05E4BFE
S214081880984703E0564B042283F80222544B93F8F9
S2140818901E32002B32D0534B5B8B002B2AD0504B7A
S2140818A0012283F81222504B1B784F4A0133DB0083
S2140818B0134421229A804A4B93F81D320133DAB238
S2140818C0474B83F81D22494B01221A70484B2122A8
S2140818D01A70454B1B781A46434B13442E229A70AF
S2140818E0444B98470346FB71FB79002B06D0424BC6
S2140818F0984703E03A4B042283F81222384B93F8B1
S2140819002E32002B32D0374BDB8F002B2AD0344BAD
S214081910012283F82222344B1B78334A0133DB003A
S214081920134422229A802E4B93F82D320133DAB2D2
S2140819302B4B83F82D222D4B01221A702C4B22227A
S2140819401A70294B1B781A46274B13442E229A7076
S214081950284B98470346FB71FB79002B06D0264B8D
S214081960984703E01E4B042283F822221C4B93F868
S2140819704E32002B51D0214B9A68214B1968214BC7
S214081980104698470346002B3ED0154B012283F895
S2140819904222154B1B78144A0133DB0013442422D9
S2140819A09A800F4B93F84D320133DAB20C4B83F81A
S2140819B04D220E4B01221A700D4B24221A700A4B28
S2140819C01B781A46084B13442E229A70094B9847E0
S2140819D00346FB71FB79002B1FD0074B98471CE08A
S2140819E0FC1C07201C220720B822072029170720DE
S2140819F0F0200720152D0800758E0800F420072013
S214081A00EC200720CD680A00934B93F84232012B4E
S214081A1003D1914B042283F842228F4B93F83E322F
S214081A20002B42D00B228D4918208D4B98478D4BA2
S214081A30DA688D4B19688D4B104698470346002B7D
S214081A402AD0854B012283F83222894B1B78884A94
S214081A500133DB00134423229A807F4B93F83D32F0
S214081A600133DAB27C4B83F83D22824B01221A708E
S214081A70814B23221A707E4B1B781A467C4B1344E4
S214081A802E229A707D4B98470346FB71FB79002BF4
S214081A900BD07B4B984708E06F4B93F83232012BFC
S214081AA003D16D4B042283F832226B4B93F86E32C7
S214081AB0002B47D0072273491820694B9847FB79B3
S214081AC0002B01D06E4B9847664B1A696E4B196807
S214081AD06E4B104698470346002B2AD05E4B0122D1
S214081AE083F86222624B1B78614A0133DB00134499
S214081AF026229A80584B93F86D320133DAB2564B49
S214081B0083F86D225B4B01221A705B4B26221A70F3
S214081B10574B1B781A46564B13442E229A70574B2F
S214081B2098470346FB71FB79002B0BD0544B98471C
S214081B3008E0494B93F86232012B03D1464B042246
S214081B4083F86222444B93F85E32002B3DD0454B17
S214081B505A694D4B1968454B104698470346002B63
S214081B602AD03D4B012283F85222414B1B78404A2B
S214081B700133DB00134425229A80374B93F85D32F5
S214081B800133DAB2344B83F85D223A4B01221A70DD
S214081B90394B26221A70364B1B781A46344B134498
S214081BA02E229A70354B98470346FB71FB79002B1B
S214081BB00BD0334B984708E0274B93F85232012B4B
S214081BC003D1254B042283F85222234B9B7F002BFC
S214081BD061D0214B5B7C012B03D12D4B1B78002B4E
S214081BE00AD11D4B5B7C002B32D1294B1B7883F026
S214081BF00103DBB2002B2BD0174B9B7C012B49D063
S214081C00154B01229A741A4B1B78194A0133DB00CC
S214081C10134401229A80104B5B7F0133DAB20E4BD5
S214081C205A77144B01221A70134B01221A70104B64
S214081C301B781A460E4B13442E229A700F4B984761
S214081C400346FB71FB79002B24D00D4B984721E007
S214081C50014B04229A741EE0FC1C072090850A009B
S214081C6005B80900F4200720EC20072009690A00B7
S214081C70B822072029170720F0200720152D08006E
S214081C80758E08009C850A002C170720CD680A0068
S214081C901C22072000BF944B93F83E30002B45D0FB
S214081CA0914B93F83130012B04D1904B93F8403088
S214081CB0002B0CD18C4B93F83130002B32D18B4B48
S214081CC093F8403083F00103DBB2002B2AD0864B12
S214081CD0012283F83220864B1B78854A0133DB00C5
S214081CE0134403229A80804B93F83D300133DAB2CE
S214081CF07D4B83F83D207F4B01221A707E4B0322D2
S214081D001A707B4B1B781A46794B13442E229A700E
S214081D107A4B98470346FB71FB79002B06D0784B25
S214081D20984703E0704B042283F832206E4B93F8F2
S214081D305E30002B45D06C4B93F85130012B04D104
S214081D406A4B93F84030002B0CD1674B93F8513010
S214081D50002B32D1654B93F8403083F00103DBB299
S214081D60002B2AD0604B012283F85220604B1B7848
S214081D705F4A0133DB00134403229A805A4B93F8D8
S214081D805D300133DAB2584B83F85D20594B012297
S214081D901A70594B05221A70554B1B781A46544B25
S214081DA013442E229A70554B98470346FB71FB79CD
S214081DB0002B06D0524B984703E04B4B042283F87F
S214081DC05220494B93F84E30002B45D0464B93F89B
S214081DD04130012B04D1454B93F84130002B0CD1F0
S214081DE0414B93F84130002B32D1404B93F84130A9
S214081DF083F00103DBB2002B2AD03B4B012283F889
S214081E0042203B4B1B783A4A0133DB00134404223A
S214081E109A80354B93F84D300133DAB2324B83F85B
S214081E204D20344B01221A70334B04221A70304B63
S214081E301B781A462E4B13442E229A702F4B98471F
S214081E400346FB71FB79002B06D02D4B984703E021
S214081E50254B042283F84220234B93F86E30002B40
S214081E6054D0214B93F86130012B04D11F4B93F8C3
S214081E704130002B0CD11C4B93F86130002B41D11C
S214081E801A4B93F8413083F00103DBB2002B39D0AC
S214081E90154B012283F86220154B1B78144A013330
S214081EA0DB00134406229A800F4B93F86D300133FB
S214081EB0DAB20D4B83F86D200E4B01221A700E4BCA
S214081EC006221A700A4B1B781A46094B13442E2210
S214081ED09A700A4B98470346FB71FB79002B15D07E
S214081EE0074B984712E000BFFC1C07201C2207205F
S214081EF0B822072029170720F0200720152D0800EC
S214081F00758E0800974B042283F86220964B9B8FA9
S214081F10002B02D0954B01221A70934B9B8F002BF7
S214081F2002D1924B02221A708E4B93F8DE33002BA6
S214081F3046D08D4B93F83A30002B04D0894B93F853
S214081F40D133012B0CD0884B93F83A3083F0010339
S214081F50DBB2002B34D0834B93F8D133002B2FD130
S214081F60804B93F8D233012B20D07E4B022283F885
S214081F70E2237C4B012283F8D2237D4B1B787C4AD4
S214081F800133DB0013443D229A807A4B01221A70F3
S214081F90794B3D221A70764B1B781A46744B1344BD
S214081FA02E229A70754B01221A7006E06D4B00229D
S214081FB083F8DD236F4B00221A70714B00221A70CB
S214081FC0684B93F8EE33002B43D0674B93F83A30C0
S214081FD0002B04D0634B93F8E133012B0CD0624BF3
S214081FE093F83A3083F00103DBB2002B31D05D4B17
S214081FF093F8E133002B2CD15A4B93F8E233012B9C
S2140820001DD0584B93F8EE33002B1FD0554B0222A9
S21408201083F8D223534B012283F8E223554B01223F
S2140820201A70554B3E221A70514B1B781A46504B65
S21408203013442E229A70514B02221A7006E0494B1E
S214082040002283F8ED234B4B00221A704C4B0122DA
S2140820501A70444B93F85E31002B43D0414B93F8EB
S2140820605231012B35D03F4BD3F85421454B1968D4
S214082070454B104698470346002B33D0394B012270
S21408208083F852213A4B1B78394A0133DB00134454
S21408209015229A80334B93F85D310133DAB2314B0F
S2140820A083F85D21334B01221A70334B15221A70C0
S2140820B02F4B1B781A462E4B13442E229A70334BFE
S2140820C098470346FB71FB79002B0BD0304B98479B
S2140820D008E0244B93F85231012B03D1214B0422FC
S2140820E083F852211F4B93F86E31002B5DD01D4BA1
S2140820F093F86231012B4FD01A4BD3F86821214B45
S2140821001968244B104698470346002B4DD0154BAC
S214082110012283F86221164B1B78154A0133DB002F
S214082120134416229A800F4B93F86D310133DAB2B6
S2140821300C4B83F86D210F4B01221A700E4B16229A
S2140821401A700B4B1B781A46094B13442E229A70AA
S2140821500E4B98470346FB71FB79002B25D00C4B9A
S214082160984722E0FC1C07201C220720B41A0720E8
S214082170B822072029170720F0200720DC1A072096
S2140821800001072030170720CD680A00152D080023
S214082190758E080009690A009B4B93F86231012B7B
S2140821A003D1994B042283F86221974B93F87E312A
S2140821B0002B43D0944B93F87231012B35D0924BB9
S2140821C0D3F87421914B1968914B104698470346EB
S2140821D0002B33D08C4B012283F872218D4B1B7851
S2140821E08C4A0133DB00134417229A80864B93F8F7
S2140821F07D310133DAB2844B83F87D21864B012288
S2140822001A70864B17221A70824B1B781A46814B17
S21408221013442E229A70824B98470346FB71FB792B
S214082220002B0BD07F4B984708E0774B93F872311A
S214082230012B03D1744B042283F87221724B93F856
S2140822408E31002B43D0704B93F88231012B35D05A
S2140822506D4BD3F888216D4B1968734B1046984719
S2140822600346002B33D0684B012283F88221694B42
S2140822701B78684A0133DB00134418229A80624BA5
S21408228093F88D310133DAB25F4B83F88D21624BB8
S21408229001221A70614B18221A705E4B1B781A4678
S2140822A05C4B13442E229A705D4B98470346FB718D
S2140822B0FB79002B0BD05B4B984708E0524B93F802
S2140822C08231012B03D1504B042283F882214E4BD6
S2140822D093F87E32002B43D04B4BD3F87422534BE3
S2140822E019684B4B104698470346002B2FD0464B91
S2140822F093F87232012B2AD0434B012283F87222BC
S214082300444B1B78434A0133DB00134427229A8048
S2140823103D4B93F87D320133DAB23B4B83F87D228E
S2140823203D4B01221A703D4B27221A70394B1B78F9
S2140823301A46384B13442E229A70394B9847034650
S214082340FB71FB79002B0BD0364B984708E02E4BD9
S21408235093F87232012B03D12B4B042283F8722296
S214082360294B93F88E32002B71D0314BDA6A2F4BFB
S21408237019682D4B104698470346002B5ED0224B13
S21408238093F88232012B59D0284B1A68204B4FF00D
S2140823900001104698470346002B09D0234B1A68BD
S2140823A0244B25491046984703461A461F4B1A6081
S2140823B0154B012283F88222164B1B78154A0133E7
S2140823C0DB00134428229A800F4B93F88D32013392
S2140823D0DAB20D4B83F88D220F4B01221A700F4B81
S2140823E028221A700B4B1B781A460A4B13442E22C7
S2140823F09A700B4B98470346FB71FB79002B26D047
S214082400084B984723E000BFFC1C0720341707201A
S214082410CD680A00B822072029170720F0200720D1
S214082420152D0800758E080009690A003817072058
S214082430F420072081630A0000007A44984B93F83A
S2140824408232012B03D1964B042283F88222944BC6
S21408245093F8FE30002B45D0914BD3F8F420914BDF
S2140824601968914B104698470346002B2AD08C4B88
S214082470012283F8F2208D4B1B788C4A0133DB004F
S21408248013440F229A80864B93F8FD300133DAB254
S214082490834B83F8FD20864B01221A70854B0F224A
S2140824A01A70824B1B781A46804B13442E229A7059
S2140824B0814B98470346FB71FB79002B12D07F4B64
S2140824C098470FE0764B93F8F230012B0AD1744BFD
S2140824D0042283F8F220724B002283F8FD20744B06
S2140824E000221A706E4B93F80E31002B4AD06C4BB4
S2140824F0D3F808216B4B1968714B1046984703466A
S214082500002B2FD0664B93F80231012B3AD0644B40
S214082510012283F80221654B1B78644A0133DB00ED
S214082520134410229A805E4B93F80D310133DAB2C9
S2140825305B4B83F80D215E4B01221A705D4B10220F
S2140825401A705A4B1B781A46584B13442E229A7008
S214082550594B98470346FB71FB79002B12D0574B13
S21408256098470FE04E4B93F80231012B0AD14C4B9B
S214082570042283F802214A4B002283F80D214C4B93
S21408258000221A70464B93F83E31002B49D04D4B2B
S2140825909A6C4D4B1968444B104698470346002BD7
S2140825A02FD03F4B93F83231012B3AD03C4B0122C7
S2140825B083F832213D4B1B783C4A0133DB00134439
S2140825C013229A80364B93F83D310133DAB2344BF6
S2140825D083F83D21364B01221A70364B13221A70A7
S2140825E0324B1B781A46314B13442E229A70324BC4
S2140825F098470346FB71FB79002B12D02F4B984760
S2140826000FE0274B93F83231012B0AD1244B0422D2
S21408261083F83221224B002283F83D21244B0022E6
S2140826201A701F4B93F84E31002B5FD0254BDA6C8F
S214082630254B1968224B104698470346002B45D071
S214082640174B93F84231012B50D0154B012283F8D3
S2140826504221164B1B78154A0133DB00134414221B
S2140826609A800F4B93F84D310133DAB20C4B83F84E
S2140826704D210F4B01221A700E4B14221A700B4B69
S2140826801B781A46094B13442E229A700A4B984711
S2140826900346FB71FB79002B28D0084B984725E0AA
S2140826A0FC1C07203C170720CD680A00B822072024
S2140826B029170720F0200720152D0800758E08001A
S2140826C009690A00F4200720441707209D4B93F851
S2140826D04231012B0AD19B4B042283F84221994BA5
S2140826E0002283F84D21984B00221A70954B93F8D8
S2140826F01E31002B4AD0934BD3F81421934B1968FC
S214082700934B104698470346002B2FD08D4B93F8D3
S2140827101231012B3AD08B4B012283F812218D4BB4
S2140827201B788C4A0133DB00134411229A80854BB0
S21408273093F81D310133DAB2824B83F81D21824BA0
S21408274001221A70844B11221A70824B1B781A4683
S214082750804B13442E229A70804B98470346FB7191
S214082760FB79002B12D07E4B98470FE0754B93F8F9
S2140827701231012B0AD1734B042283F81221714BB4
S214082780002283F81D21704B00221A706D4B93F8B7
S2140827902E31002B4AD06B4BD3F828216B4B196887
S2140827A0704B104698470346002B2FD0654B93F87E
S2140827B02231012B3AD0634B012283F82221654B44
S2140827C01B78644A0133DB00134412229A805D4B5F
S2140827D093F82D310133DAB25A4B83F82D215A4B30
S2140827E001221A705C4B12221A705A4B1B781A4632
S2140827F0584B13442E229A70584B98470346FB7141
S214082800FB79002B12D0564B98470FE04D4B93F8A8
S2140828102231012B0AD14B4B042283F82221494B43
S214082820002283F82D21484B00221A70454B93F856
S2140828308E30002B48D04C4BB3F902204B4B104639
S21408284098474B4B1A68424B114698470346002B4D
S2140828502AD03C4B012283F882203E4B1B783D4A07
S2140828600133DB00134408229A80364B93F88D30E8
S2140828700133DAB2334B83F88D20334B01221A70BA
S214082880354B08221A70334B1B781A46314B1344C3
S2140828902E229A70314B98470346FB71FB79002B22
S2140828A012D02F4B98470FE0264B93F88230012B17
S2140828B00AD1244B042283F88220224B002283F874
S2140828C08D20214B00221A701E4B93F87E30002B69
S2140828D060D0254BB3F90020244B10469847244B6C
S2140828E01A68204B114698470346002B42D0154BD2
S2140828F0012283F87220174B1B78164A0133DB0037
S214082900134407229A800F4B93F87D300133DAB2CE
S2140829100C4B83F87D200C4B01221A700E4B0722B5
S2140829201A700C4B1B781A460A4B13442E229A70C0
S2140829300A4B98470346FB71FB79002B2AD0084BB5
S214082940984727E0FC1C0720291707204017072070
S214082950CD680A00B8220720F0200720152D0800A9
S214082960758E080009690A00F4200720E9640A0041
S21408297048170720824B93F87230012B0AD1804BF8
S214082980042283F872207E4B002283F87D207D4B3C
S21408299000221A707A4B93F89E30002B0AD1784B97
S2140829A093F8AE30002B05D1754B93F8BE30002B4C
S2140829B000F0F780744B00221A707348734B9847E0
S2140829C00346FB71FB79002B01D0714B98476E4B81
S2140829D01B780A2B49D00B2B00F08A80092B40F075
S2140829E0E080694B1B78664A1B01134402330122B8
S2140829F01A70634B042283F8A220614B042283F8E2
S214082A00B220644B1B7818465F4B1B7899B2614A14
S214082A10431CDB0013440A469A805B4B1B785849D4
S214082A201A010A440D3212780132D1B2544A1B01F7
S214082A3013440D330A461A70524B01221A70524B31
S214082A401A78554B1A70534B1B781A46514B134439
S214082A502E229A70514B98470346FB71FB79002B40
S214082A6000F089804A4B984785E0474B1B78444AD4
S214082A701B011344023301221A70414B042283F8C7
S214082A8092203F4B042283F8B220424B1B7818460C
S214082A903D4B1B7899B23F4A431CDB0013440A4659
S214082AA09A80394B1B7836491A010A440D32127837
S214082AB00132D1B2324A1B0113440D330A461A704A
S214082AC0304B01221A70304B1A78334B1A70314B40
S214082AD01B781A462F4B13442E229A702F4B984772
S214082AE00346FB71FB79002B47D0294B984744E0F7
S214082AF0254B1B78224A1B011344023301221A7005
S214082B001F4B042283F892201D4B042283F8A22030
S214082B10204B1B7818461C4B1B7899B21D4A431C41
S214082B20DB0013440A469A80174B1B7814491A018F
S214082B300A440D3212780132D1B2114A1B011344ED
S214082B400D330A461A700F4B01221A700E4B1A786C
S214082B50114B1A700F4B1B781A460E4B13442E2235
S214082B609A700E4B98470346FB71FB79002B17D0DB
S214082B70074B984714E000BF13E000BF11E000BF02
S214082B80FC1C07202917072028170720993108005A
S214082B90758E0800B8220720F0200720152D08009B
S214082BA000BF504B1B78002B00F097804E4B93F8D5
S214082BB0CE30002B0AD14C4B93F8DE30002B05D1D3
S214082BC0494B93F8EE30002B00F08780474B9B8FDD
S214082BD01A46474B1B689A420CD0464B00221A608E
S214082BE0454B1B680133444A1360444B1B6801334A
S214082BF0424A13603F4B1B68282B32D93A4B93F84E
S214082C00C230012B2DD0384B012283F8C2203C4B12
S214082C101B783B4A0133DB0013440C229A80324B64
S214082C2093F8CD300133DAB22F4B83F8CD202E4BF4
S214082C30042283F8C220334B01221A70324B0C222E
S214082C401A702F4B1B781A462D4B13442D229A7058
S214082C502E4B98470346FB71FB79002B01D02C4B73
S214082C609847254B1B68022B32D91F4B93F8E23046
S214082C70012B2DD01C4B012283F8E220204B1B7819
S214082C801F4A0133DB0013440E229A80164B93F832
S214082C90ED300133DAB2144B83F8ED20124B0422E0
S214082CA083F8E220174B01221A70174B0E221A706F
S214082CB0134B1B781A46124B13442D229A70134B4B
S214082CC098470346FB71FB79002B01D0104B9847B9
S214082CD0064B9B8F1A46064B1A6000231846083781
S214082CE0BD4680BD591A0720FC1C07201C22072059
S214082CF0181707201C170720201707202417072057
S214082D00B822072029170720F0200720152D0800CD
S214082D10758E080080B400AF0A4B1B78002B0CD0C9
S214082D20094B1B78092B08D8074B01225A70064B0B
S214082D301B780133DAB2044B1A7000231846BD46D6
S214082D4080BC704729170720B822072080B400AF38
S214082D500A4B1B78002B0CD0094B1B78092B08D87C
S214082D60074B01225A70064B1B780133DAB2044B24
S214082D701A7000231846BD4680BC704729170720DE
S214082D80DC24072080B485B000AFBA607B600346B9
S214082D90FB730B46BB73FB7B104A1B0113440133C2
S214082DA0BA7B1A70FB7B0D4A1B01134408337A68FA
S214082DB01A60FB7B094A1B0113440433BA681A607D
S214082DC0FB7B064A1B0113440C333A7E1A70002319
S214082DD018461437BD4680BC704700BFFC1C072049
S214082DE080B584B000AF03460A46FB711346BB7134
S214082DF00023FB73FB79002B59D0FB793E2B56D862
S214082E00FB793D2B05D0FB793E2B02D0FB793C2B7A
S214082E1014D1FB792C4A1B0113440E3301221A7075
S214082E20FB79294A1B011344023302221A70FB79E4
S214082E30254A1B0113440D3300221A70234B1B78B6
S214082E40002B36D0FB79204A1B011344FA791A70F6
S214082E50BB79002B15D0FB791B4A1B0113440E3394
S214082E6001221A70FB79184A1B0113440233022206
S214082E701A70FB79144A1B0113440D3300221A708A
S214082E8017E0FB79104A1B0113440E3300221A7010
S214082E90FB790D4A1B011344023304221A70FB798E
S214082EA0094A1B0113440D3300221A7001E004235B
S214082EB0FB73FB7B002B01D0054B9847FB7B184622
S214082EC01037BD4680BD00BFFC1C0720280A072017
S214082ED0758E080080B485B000AF0346FB710023EA
S214082EE0FB73FB79002B0CD0FB793E2B09D8FB79BA
S214082EF0084A1B011344023302221A700023FB738C
S214082F0001E00423FB73FB7B18461437BD4680BCE0
S214082F10704700BFFC1C072080B500AF204B93F815
S214082F20CE33002B39D01F4B9B8B012B28D11E4B41
S214082F30B3F90030002B23D1194B012283F8C223A2
S214082F401A4B1B78194A0133DB0013443C229A803B
S214082F50134B93F8CD330133DAB2114B83F8CD23F4
S214082F60134B01221A70134B3C221A700F4B1B7816
S214082F701A460E4B13442F229A700F4B984707E0B9
S214082F80074B042283F8C223054B002283F8CD237F
S214082F90044B9B8B1AB2044B1A8000BF184680BDA0
S214082FA0FC1C07201C2207202A170720DC240720E1
S214082FB029170720F02007204D2D080080B584B07B
S214082FC000AF03463960FB710023FB73FB79002BC7
S214082FD01CD0FB793E2B19D8FB79124A1B011344E7
S214082FE002331B78012B07D0FB790E4A1B011344CA
S214082FF002331B78032B03D13B6801221A7002E0C8
S2140830003B6800221A700023FB7301E00423FB735D
S214083010FB7B002B01D0044B9847FB7B18461037E8
S214083020BD4680BDFC1C0720758E080080B584B0A0
S21408303000AF03460A46FB711346BB710023FB73B9
S214083040FB79002B63D0FB793E2B60D8FB79364A98
S2140830501B0113440E331B78002B55D0BB79002B6D
S21408306039D0FB79304A1B011344023301221A7007
S2140830702E4B1B78FA7991B22C4A0133DB001344A5
S2140830800A469A80FB7928491A010A440D321278B2
S2140830900132D1B2244A1B0113440D330A461A7072
S2140830A0234B01221A70234AFB791370FB793C2BB9
S2140830B007D11E4B1B781A461C4B13442D229A70B8
S2140830C006E01A4B1B781A46184B13442E229A70A1
S2140830D0194B984718E0FB79134A1B01134402332F
S2140830E01B78012B10D1FB790F4A1B0113440233BE
S2140830F004221A70FB790C4A1B0113440D33002274
S2140831001A700B4B00221A700023FB7301E004238D
S214083110FB73FB7B002B01D0084B9847002318460F
S2140831201037BD4680BD00BFFC1C0720B82207200C
S21408313029170720F0200720152D0800758E08008F
S21408314080B483B000AF0023FB710F4B1B8801339C
S2140831509AB20D4B1A800D4B00221A600C4B1B6856
S21408316001330B4A1360084B1B88142B05D9094BEF
S21408317000221A60044B00221A80002318460C37D7
S214083180BD4680BC704700BF4C1707202017072095
S2140831901C1707202417072080B483B000AF786078
S2140831A03B4B1B881A461346DB001344394A528E9B
S2140831B01344394A82FB03129210DB17D31A9AB2C9
S2140831C0334B1A80354B1B78032B5BD801A252F879
S2140831D023F000BFE53108001B320800E53108007F
S2140831E0473208002A4B1B88322B0AD9284B1B88E3
S2140831F0B3F5FA6F05D27B680A221A70274B0122AC
S2140832001A70234B1B88B3F5FA6F36D97B680B22E6
S2140832101A70224B03221A702FE01D4B1B88B3F539
S214083220FA6F05D97B680B221A701C4B03221A709A
S214083230174B1B88312B22D87B6809221A70174B2C
S21408324002221A701BE0124B1B88322B0AD9104B2D
S2140832501B88B3F5FA6F05D27B680A221A700F4BE3
S21408326001221A700A4B1B88312B0AD87B68092260
S2140832701A700A4B02221A7003E000BF02E000BF71
S21408328000E000BF002318460C37BD4680BC7047D8
S2140832904E1707201C220720676666665017072009
S2140832A080B584B000AF0346FB710023FB73FB793F
S2140832B0043B0C2B00F2A88001A252F823F000BFB2
S2140832C0F53208008F33080009340800093408006E
S2140832D00934080009340800093408005F33080078
S2140832E009340800AB33080009340800EF33080037
S2140832F0B93308000720994B98470346FB7340F2FA
S2140833004C410220964B98474FF461710120944B2C
S214083310984700211A20934B9847934B1B78012B0C
S21408332015D115208D4B98470346FB738F4B1B789A
S214083330012B0CD18E4B984740F6AC508D4B9847D6
S21408334001208D4B98478D4905208D4B98478D4B0E
S2140833501A788D4B1A708B4B02221A7054E0894BE0
S2140833601B78002B4FD107207C4B98470346FB73EE
S214083370854B1B781A46854B9B5C1846774B9847B7
S2140833800346FB73804B1A787E4B1A703BE0804BE3
S21408339000221A6000211A20724B984711206F4BA2
S2140833A09847784B00221A702EE07A4B00221A8033
S2140833B0744B00221A7027E00520684B984703468E
S2140833C0FB734FF47A710220654B98474FF47A7175
S2140833D00120634B9847704B61221A806E4B1B88FE
S2140833E018466E4B9847674B0C221A700CE06A4BCF
S2140833F042221A80684B1B881846684B9847614BD0
S2140834000C221A7000E000BF5E4B1B78152B00F2EA
S214083410B78501A252F823F0813F0800813F0800D3
S214083420713408002B3508001B380800BD38080022
S214083430D93808000D390800293908004F3908001E
S2140834406B3908009F390800BB390800FB390800AB
S2140834504B3C08007F3C0800F93E0800813F080006
S2140834603D3F0800813F0800813F0800813F080073
S214083470FB79013B072B4CD801A252F823F000BF7A
S214083480A1340800A93408001335080013350800CD
S21408349013350800C734080013350800ED34080053
S2140834A03F4B01221A703EE03D4B1B78002B33D071
S2140834B0344B1A78344B1A70324B03221A70384B36
S2140834C000221A7028E0334B00221A800520234B6E
S2140834D098470346FB73FB7B002B20D1294B1A78B1
S2140834E0294B1A70274B10221A7018E0294B002215
S2140834F01A800620194B98470346FB73FB7B002B64
S21408350010D1204B1A78204B1A701E4B12221A70B4
S21408351008E000BF00F035BD00BF00F032BD00BFB8
S21408352000F02FBD00BF00F02CBDFB79013B072B38
S21408353000F26B8101A252F823F000BF0B38080096
S214083540A53508000B3808000B3808000B380800AB
S214083550BF3708000B380800E5370800999C0900B3
S214083560219B0900E12D0800021C07204F1A07209E
S214083570819A0900899B09008593080000009642F5
S214083580F992080051170720521707200401072050
S21408359064170720561707205A1707205D9F09004B
S2140835A053170720A24B1B78012B47D10023BB815A
S2140835B04223BB81BB8918469E4B98474FF4FA7145
S2140835C002209D4B98474FF47A7101209A4B9847F2
S2140835D09A4BB3F900309AB2013292B211B2974AB6
S2140835E01180B3F5167F40F31281954B00221A809E
S2140835F0924B00221A800520924B98470346FB738D
S2140836001320914B98470346FB7351208F4B9847DE
S2140836100346FB73FB7B002B40F0F98000211A2041
S2140836208B4B98478B4B1A788B4B1A70894B0C220E
S2140836301A70884B1A78884B1A70E8E0804BB3F9F2
S21408364000309AB2013292B211B27D4A1180B3F5B7
S214083650967F40F3DC80764B1B78012B0DD1784B98
S21408366000221A804FF4FA710220734B98474FF4E1
S2140836707A710120704B98476DE0784B9847784BE5
S21408368098476F4B00221A804FF47A7102206A4BD3
S214083690984740F24C410120674B9847714B4422AB
S2140836A01A80704B1B881846624B98476E4B1B78DF
S2140836B0012B50D14FF4167102205F4B984740F209
S2140836C04C4101205C4B9847684B9847654B512204
S2140836D01A80644B1B881846564B9847644B984785
S2140836E04FF47A60634B98470120634B98476349C9
S2140836F00520634B98470220624B98470320614B8E
S2140837009847614B984700210220604B9847604BCA
S214083710984764205F4B98474FF47A5101205B4BDB
S2140837209847C8205B4B98474FF4FA510120574BEF
S21408373098474FF41670574B984741F28831012046
S214083740524B98474FF44870524B984740F6C4116E
S21408375001204E4B9847434B42221A80414B1B8808
S2140837601846344B98474FF47A710220324B9847E4
S2140837704FF47A710120304B98470520314B984713
S2140837800346FB731320304B98470346FB735120C0
S2140837902E4B98470346FB73FB7B002B37D1002143
S2140837A01A202B4B98472B4B1A782B4B1A70294B01
S2140837B00C221A70274B1A78274B1A7027E0204BD2
S2140837C000221A8005201F4B98470346FB73FB7B95
S2140837D0002B1ED11F4B1A781F4B1A701D4B102238
S2140837E01A7016E0164B00221A800620154B9847CA
S2140837F00346FB73FB7B002B0DD1164B1A78164B32
S2140838001A70144B12221A7005E000BFB9E300BF05
S214083810B7E300BFB5E300BFB3E3FB79012B02D0E3
S214083820022B3BD049E01C4B01221A7045E000BF32
S214083830021C07205D9F0900219B090058170720D6
S21408384056170720999C0900C99A090055BA080016
S214083850E12D08005117072052170720359F090049
S214083860259E09005A170720B11C07201D9C090031
S214083870819A0900899B0900859308000000A042E8
S214083880F9920800A99A0900519E0900BD5B090033
S214083890755B09000930090053170720A04B1B78F1
S2140838A0002B09D09F4B1A789F4B1A709D4B052208
S2140838B01A709B4B00221A7000BF62E3FB79022B3A
S2140838C004D0032B04D0012B04D004E000BF58E337
S2140838D000BF56E300BF54E3FB79012B02D0022B4E
S2140838E004D012E08E4B01221A700EE08C4B1B7827
S2140838F0002B09D08B4B1A788B4B1A70894B0722F2
S2140839001A70874B00221A7000BF3AE3FB79022B25
S21408391004D0032B04D0012B04D004E000BF30E30E
S21408392000BF2EE300BF2CE3FB79012B02D0022B4D
S2140839300BD00BE07B4B1A787B4B1A70794B09221D
S2140839401A70774B00221A7000E000BF19E3FB7963
S214083950022B04D0032B04D0012B04D004E000BFB4
S2140839600FE300BF0DE300BF0BE3FB79012B02D08A
S214083970022B04D012E06A4B01221A700EE0684B44
S2140839801B78002B09D0674B1A78674B1A70654B63
S2140839900B221A70624B00221A7000BFF1E2FB7904
S2140839A0022B04D0032B04D0012B04D004E000BF64
S2140839B0E7E200BFE5E200BFE3E2FB79002B01D0B7
S2140839C0022B19E0594BB3F900309BB201339BB276
S2140839D01AB2564B1A80564B1B8801339AB2544B70
S2140839E01A80544B00221A804E4B1A784E4B1A7087
S2140839F04C4B0D221A7000BFC3E2FB79032B00F272
S214083A001C8101A252F823F0193A08003B3C080032
S214083A10713A0800873A0800444BB3F900309BB265
S214083A2001339BB21AB2414B1A80414B1B880133B3
S214083A309AB23F4B1A803E4B1B88282B09D113207D
S214083A403D4B984714203C4B984704203A4B9847E0
S214083A50F5E0374B1B882D2B40F0F1800420374BC0
S214083A6098471420354B98471320344B9847E6E080
S214083A702E4BB3F90030962B40F3E38001211A2031
S214083A802F4B9847DDE02F4B01221A702E4B002251
S214083A901A60264BB3F900309AB22B4B1A802A4B81
S214083AA016229A70214BB3F900309AB2274B1A8027
S214083AB0274B1B78012B40F09880264B1B68B3F5E4
S214083AC0C87F00F08F80B3F5C87F05D8C82B7FD095
S214083AD0B3F5967F5FD088E0B3F5FA7F3ED0B3F5AE
S214083AE0487F40F08280114BB3F90030372B04DC56
S214083AF00E4BB3F900302C2B0DDC174B1B6801332B
S214083B00154A1360144B1B68032B08DD01211A2085
S214083B100B4B984703E0104B00221A6065E064E000
S214083B205317072051170720521707206A17072030
S214083B306817072054170720A99A0900C99A090088
S214083B402D3008004C1A07206C170720701707201E
S214083B5043190720441907205C170720A04BB3F920
S214083B6000304D2B04DC9E4BB3F90030422B0DDCA5
S214083B709C4B1B6801339B4A13609A4B1B68032BAC
S214083B8008DD01211A20984B984703E0954B002240
S214083B901A602AE029E0924BB3F900307D2B04DC4A
S214083BA08F4BB3F90030722B0DDC8E4B1B6801333C
S214083BB08C4A13608B4B1B68032B08DD01211A20E7
S214083BC0894B984703E0874B00221A600DE00CE00B
S214083BD0834BB3F90030BE2B06DD01211A20824B39
S214083BE0984701E000BF00E000BF06207F4B9847DB
S214083BF00346FB737E4B00221A8013207D4B9847A2
S214083C0004227D4937207D4B984702227C4949206B
S214083C107A4B98477B4B1B6801337A4A1360FB7BC9
S214083C20002B10D1784B1A78784B1A70764B0E22E8
S214083C301A706B4B00221A8005E000BFA1E100BF96
S214083C409FE100BF9DE100BF9BE1FB79002B01D0FF
S214083C50022B13E0624BB3F900309BB201339BB2E0
S214083C601AB25F4B1A806A4B00221A80664B1A7883
S214083C70664B1A70644B0F221A7000BF81E1FB79FD
S214083C80032B00F2318101A252F823F09D3C080074
S214083C90E93E0800F53C08000B3D0800504BB3F918
S214083CA000309BB201339BB21AB24D4B1A80504B70
S214083CB01B8801339AB24E4B1A804D4B1B88282B13
S214083CC009D113204B4B984714204A4B9847042099
S214083CD0484B98470AE1464B1B882D2B40F0068137
S214083CE004204C4B984714204A4B98471320494BBE
S214083CF09847FBE03A4BB3F90030962B40F3F88030
S214083D0001211A20384B9847F2E0434B01221A70DB
S214083D10394B00221A60324BB3F900309AB2364B50
S214083D201A80354B15229A702D4BB3F900309AB28B
S214083D30334B1A80394B1B78012B40F0AD80384B3B
S214083D401B68B3F5C87F00F0A480B3F5C87F06D813
S214083D50C82B00F08680B3F5967F65D09CE0B3F557
S214083D60FA7F20D0B3F5487F40F096801C4BB3F915
S214083D700030372B04DC1A4BB3F900302C2B0DDC43
S214083D80284B1B680133274A1360264B1B68032BF6
S214083D9008DD01211A20144B984703E0214B002226
S214083DA01A6079E078E00E4BB3F900304D2B04DC4E
S214083DB00B4BB3F90030422B0DDC1A4B1B68013352
S214083DC0184A1360174B1B68032B08DD01211A20BD
S214083DD0054B984703E0134B00221A605CE05BE053
S214083DE06A1707205C1707202D300800999C0900E1
S214083DF068170720A99A09006C17072005B8090054
S214083E007017072064170720511707205217072036
S214083E1054170720C99A09004C1A07204319072087
S214083E204419072060170720584BB3F900307D2B3C
S214083E3004DC564BB3F90030722B0DDC544B1B6870
S214083E400133534A1360524B1B68032B08DD0121CC
S214083E501A20504B984703E04D4B00221A601BE08F
S214083E601AE04A4BB3F90030BE2B14DD4A4B98478C
S214083E7004204A4B98473220494B98470420494B20
S214083E8098473220464B984701211A20414B9847BD
S214083E9001E000BF00E000BF0520434B98470346FB
S214083EA0FB73424B00221A8013203C4B984704228F
S214083EB03F4937203F4B984702223F4949203D4B10
S214083EC098473E4B1B6801333C4A1360FB7B002B2C
S214083ED010D13B4B1A783B4B1A702C4B00221A8099
S214083EE0374B0C221A7005E000BF4AE000BF48E0D6
S214083EF000BF46E000BF44E0FB79042B0BD0072B3D
S214083F0000D01AE00520284B98470346FB732C4B35
S214083F1011221A7011E00720234B98470346FB73BB
S214083F20274B1A78274B1A70254B02221A70132033
S214083F301A4B98470346FB7300BF22E0FB79042B15
S214083F400BD0092B00D01AE00620174B98470346DB
S214083F50FB731B4B13221A7011E00720124B98476D
S214083F600346FB73164B1A78164B1A7013200B4B26
S214083F7098470346FB73124B02221A7000BF00E0F4
S214083F8000BF002318461037BD4680BD6A170720B5
S214083F90601707202D300800159D0900A99A09000A
S214083FA009300900C99A0900999C09006817072072
S214083FB06C17072005B80900701707206417072034
S214083FC0511707205217072080B485B000AF7860D5
S214083FD00023FB6061E0354AFB6832F823309BB269
S214083FE01A467B689A420BD1304AFB689B001344FA
S214083FF05B889BB21A462E4B1A602D4B1B684FE007
S2140840002A4AFB6832F823309BB21A467B689A42E3
S21408401040D2FB680133254A32F823309BB21A4651
S2140840207B689A4236D9FB680133204A32F8233037
S2140840309BB219461D4AFB6832F823309BB2CA1A4F
S214084040FB68013319499B000B445B889BB21846F2
S2140840501649FB689B000B445B889BB2C31A92FB0D
S214084060F3F37B81B7F90A301049FA6831F8222051
S21408407092B211467A68521A02FB03F20B49FB68A1
S2140840809B000B445B889BB21344094A1360084B99
S2140840901B6805E0FB680133FB60FB68312B9ADD83
S2140840A018461437BD4680BC704700BF1C01072061
S2140840B06421072090B585B000AF0346FB80002337
S2140840C0FB60A1E0544AFB689B0013445B881BB264
S2140840D0B7F906209A420BD14F4AFB6832F82330CC
S2140840E01AB24E4B1046984702464D4B1A6088E067
S2140840F0494AFB689B0013445B881BB2B7F9062045
S2140841009A425BDDFB680133434A9B0013445B8895
S2140841101BB2B7F906209A4250DAFB6801333E4ACA
S21408412032F823301BB219463B4AFB6832F8233074
S2140841301BB2CB1A642202FB03F2FB680133364932
S2140841409B000B445B881BB218463349FB689B00F0
S2140841500B445B881BB2C31A92FBF3F22F4B104634
S21408416098470346BB60B7F906202B49FB689B00B7
S2140841700B445B881BB2D21A284B10469847024657
S214084180284BB9681046984703461A46264B2749CF
S2140841901046984703461C461F4AFB6832F82330E9
S2140841A01AB21E4B104698470246214B1146204627
S2140841B0984703461A461A4B1A6022E0164B5B8845
S2140841C01BB2B7F906209A4209DA134B1B881AB2B3
S2140841D0124B104698470246114B1A6011E00E4BD8
S2140841E0B3F866301BB2B7F906209A4209DD0A4BC7
S2140841F0B3F864301AB2094B104698470246084B83
S2140842001A60FB680133FB60FB68192B7FF75AAF0F
S21408421000BF1437BD4690BDE4010720E9640A00D4
S2140842206021072091650A00F9660A000000C84266
S21408423081630A0090B585B000AF0346FB80002373
S214084240FB60A1E0544AFB689B0013445B881BB2E2
S214084250B7F906209A420BD14F4AFB6832F823304A
S2140842601AB24E4B1046984702464D4B1A608FE0DE
S214084270494AFB689B0013445B881BB2B7F90620C3
S2140842809A425BDDFB680133434A9B0013445B8814
S2140842901BB2B7F906209A4250DAFB6801333E4A49
S2140842A032F823301BB219463B4AFB6832F82330F3
S2140842B01BB2CB1A642202FB03F2FB6801333649B1
S2140842C09B000B445B881BB218463349FB689B006F
S2140842D00B445B881BB2C31A92FBF3F22F4B1046B3
S2140842E098470346BB60B7F906202B49FB689B0036
S2140842F00B445B881BB2D21A284B104698470246D6
S214084300284BB9681046984703461A46264B27494D
S2140843101046984703461C461F4AFB6832F8233067
S2140843201AB21E4B104698470246214B11462046A5
S214084330984703461A461A4B1A6029E0164B5B88BC
S2140843401BB2B7F906209A4209DA134B1B881AB231
S214084350124B104698470246164B1A6011E00E4B51
S214084360B3F866301BB2B7F906209A4209DD0A4B45
S214084370B3F864301AB2094B1046984702460D4BFC
S2140843801A60FB680133FB60FB68192B7FF75AAF8E
S21408439000BF1437BD4690BD4C020720E9640A00EA
S2140843A07417072091650A00F9660A000000C842DB
S2140843B081630A006021072080B584B000AF0346F9
S2140843C0FB800023FB606FE03B4AFB689B001344BE
S2140843D05B881BB2B7F906209A420BD1364AFB68AF
S2140843E032F823301AB2354B104698470246344BFB
S2140843F01A605CE0304AFB689B0013445B881BB27B
S214084400B7F906209A424CDDFB6801332A4A9B001E
S21408441013445B881BB2B7F906209A4241DAFB6858
S2140844200133254A32F823301BB21946224AFB6864
S21408443032F823301BB2CB1A642202FB03F2FB6865
S21408444001331D499B000B445B881BB218461A496A
S214084450FB689B000B445B881BB2C31A92FBF3F302
S2140844607B81B7F90A20B7F906101348FB689B004A
S21408447003445B881BB2CB1A03FB02F3114A82FB88
S21408448003125211DB17D31A0B49FA6831F82220A7
S21408449012B21A44094B104698470246084B1A604F
S2140844A005E0FB680133FB60FB681A2B8CDD00BF58
S2140844B01037BD4680BD00BFEC020720E9640A003D
S2140844C0781707201F85EB5180B584B000AF0346E8
S2140844D0FB800023FB606FE03B4AFB689B001344AD
S2140844E05B881BB2B7F906209A420BD1364AFB689E
S2140844F032F823301AB2354B104698470246344BEA
S2140845001A605CE0304AFB689B0013445B881BB269
S214084510B7F906209A424CDDFB6801332A4A9B000D
S21408452013445B881BB2B7F906209A4241DAFB6847
S2140845300133254A32F823301BB21946224AFB6853
S21408454032F823301BB2CB1A642202FB03F2FB6854
S21408455001331D499B000B445B881BB218461A4959
S214084560FB689B000B445B881BB2C31A92FBF3F3F1
S2140845707B81B7F90A20B7F906101348FB689B0039
S21408458003445B881BB2CB1A03FB02F3114A82FB77
S21408459003125211DB17D31A0B49FA6831F8222096
S2140845A012B21A44094B104698470246084B1A603E
S2140845B005E0FB680133FB60FB681A2B8CDD00BF47
S2140845C01037BD4680BD00BF58030720E9640A00BF
S2140845D07C1707201F85EB5180B584B000AF0346D3
S2140845E0FB800023FB606FE03B4AFB689B0013449C
S2140845F05B881BB2B7F906209A420BD1364AFB688D
S21408460032F823301AB2354B104698470246344BD8
S2140846101A605CE0304AFB689B0013445B881BB258
S214084620B7F906209A424CDDFB6801332A4A9B00FC
S21408463013445B881BB2B7F906209A4241DAFB6836
S2140846400133254A32F823301BB21946224AFB6842
S21408465032F823301BB2CB1A642202FB03F2FB6843
S21408466001331D499B000B445B881BB218461A4948
S214084670FB689B000B445B881BB2C31A92FBF3F3E0
S2140846807B81B7F90A20B7F906101348FB689B0028
S21408469003445B881BB2CB1A03FB02F3114A82FB66
S2140846A003125211DB17D31A0F49FA6831F8222081
S2140846B012B21A44094B104698470246084B1A602D
S2140846C005E0FB680133FB60FB68312B8CDD00BF1F
S2140846D01037BD4680BD00BFC4030720E9640A0042
S2140846E0801707201F85EB519417072090B587B0D1
S2140846F000AF78604FF000033B617B683B614FF08A
S2140847000003FB6000237B618FE04C4A7B6932F82C
S21408471023309BB21A464A4B104698470246494BE6
S2140847203969104698470346002B0CD0434A7B69E4
S2140847309B0013445B889AB2434B10469847024640
S214084740424B1A606EE03D4A7B6932F823309BB2D2
S2140847501A463B4B1046984702463D4B3969104669
S21408476098470346002B5DD07B690133334A32F8FD
S21408477023309BB21A46324B104698470246354BB2
S2140847803969104698470346002B4BD07B6901339E
S2140847902A4A9B0013445B889BB21946274A7B69C2
S2140847A09B0013445B889BB2CA1A7B690133234972
S2140847B031F823309BB2184620497B6931F82330FC
S2140847C09BB2C31A92FBF3F21D4B1046984703465A
S2140847D0FB601A4A7B6932F823309BB21A46184B9C
S2140847E01046984702461C4B1146386998470346B8
S2140847F01A461A4BF9681046984703461C460F4A4D
S2140848007B699B0013445B889BB21A460C4B104688
S21408481098470246124B11462046984703461A46C2
S2140848200A4B1A607B6901337B617B69312B7FF702
S2140848306CAF00BF1C37BD4690BD00BF5C18072094
S214084840E9640A00B9680A00E1640A008C170720C0
S214084850CD680A0009690A007D630A0091650A00A6
S21408486081630A0090B587B000AF0346FB80B7F9AE
S2140848700620514B1046984703463B610023FB82AF
S21408488092E0FB8A4D4A32F823309BB21A464A4BCE
S2140848901046984702464A4B3969104698470346D9
S2140848A0002B0AD0FB8A454A9B0013445B889BB2C0
S2140848B0BB60444ABB6813607AE0FB8A3F4A32F81A
S2140848C023309BB21A463C4B1046984702463E4B4E
S2140848D03969104698470346002B62D0FB8A013395
S2140848E0364A32F823309BB21A46334B104698475E
S2140848F00246364B3969104698470346002B50D077
S214084900FB8A01332D4A9B0013445B889BB21946E9
S214084910FB8A2A4A9B0013445B889BB2CA1AFB8A06
S2140849200133264931F823309BB21846FB8A2349BF
S21408493031F823309BB2C31A92FBF3F21E4B104693
S21408494098470346FB60FB8A1C4A32F823309BB222
S2140849501A46194B1046984702461D4B11463869A9
S214084960984703461A461B4BF9681046984703466D
S2140849701C46FB8A114A9B0013445B889BB21A4666
S2140849800D4B104698470246134B1146204698474B
S21408499003461A46114B104698470246094B1A60BA
S2140849A006E0FB8A0133FB82FB8A0D2B7FF669AF94
S2140849B000BF1C37BD4690BDE9640A00B402072054
S2140849C0B9680A0090170720CD680A0009690A0026
S2140849D07D630A0091650A0081630A0069690A0016
S2140849E080B400AF1F4B4FF4FA725A611D4B4FF458
S2140849F0B9729A611B4B8722DA621A4B4FF4C87257
S214084A00DA63184B40F277121A66164B40F26D12AC
S214084A101A66144B9622C3F88C20124B0022C3F851
S214084A208820104B4FF4C872C3F894200D4B002210
S214084A30C3F890200B4B4FF4C8725A67094B0022F4
S214084A401A67084B32221A66064B00225A66054B2E
S214084A5000225A63034BF0225A6500231846BD46C7
S214084A6080BC70475426072080B592B000AF034636
S214084A70FB71042387F84730512387F8463007F13F
S214084A800C03322200211846CD4B9847FB790E2B93
S214084A9007D03B2B00F06D840D2B00F07E8300F0D2
S214084AA06DBCC84B1B7E002B00F06584C54B1B797C
S214084AB0013B212B00F26D8301A252F823F000BFC0
S214084AC0494B08007F4B0800234C0800494C080057
S214084AD09351080093510800935108009351080019
S214084AE09351080093510800935108009351080009
S214084AF093510800935108009351080093510800F9
S214084B0093510800B54C08009351080093510800CB
S214084B1093510800935108009351080093510800D8
S214084B2093510800935108009351080093510800C8
S214084B3093510800B54B080093510800DB4B08005A
S214084B40014C08007F4C0800162387F846300123DE
S214084B503B7307F10C030133194601209A4B98471B
S214084B60034687F8473007F10C0197F846300222CB
S214084B701846964B9847034687F847300CE31623A3
S214084B8087F8463002233B7307F10C0301331946B6
S214084B9002208D4B9847034687F8473007F10C01EB
S214084BA097F8463002221846884B9847034687F8F7
S214084BB04730F1E2162387F8463020233B7300235C
S214084BC07B7307F10C0197F84630022218467F4B94
S214084BD09847034687F84730DEE2162387F84630BC
S214084BE021233B7300237B7307F10C0197F84630AB
S214084BF002221846754B9847034687F84730CBE29B
S214084C00162387F8463023233B7307F10C0197F8E1
S214084C104630022218466D4B9847034687F84730B9
S214084C20BAE2162387F8463003233B7300237B73C8
S214084C3007F10C0197F8463002221846634B98474E
S214084C40034687F84730A7E2162387F8463004233A
S214084C503B7307F10C030133194604205A4B984757
S214084C60034687F8473007F10C0197F846300222CA
S214084C701846564B9847034687F847308CE2162363
S214084C8087F8463022233B7307F10C030133194695
S214084C9004204D4B9847034687F8473007F10C0128
S214084CA097F8463002221846484B9847034687F836
S214084CB0473071E2162387F8463012233B73414B80
S214084CC05B79252B20D83F4B5B797B737B7B1A4619
S214084CD03F4B53F822303B6497F84030BB7397F845
S214084CE04130FB7397F842303B7497F843307B7437
S214084CF007F10C0197F8463006221846334B9847BA
S214084D00034687F8473046E22E4B5B792D2B00F298
S214084D1042822C4B5B797B732A4B5B79263B072BAD
S214084D2000F2358201A252F823F000BF4D4D08006C
S214084D304D4E08008F510800D54D0800BF4E08009C
S214084D40195108009F5008002F4F0800204B5B6938
S214084D503B6497F84030BB7397F84130FB7397F87D
S214084D6042303B7497F843307B74194B9B693B641D
S214084D7097F84030BB7497F84130FB7497F8423088
S214084D803B7597F843307B75114BDB6A3B6497F8A5
S214084D904030BB7597F84130FB7597F842303B7644
S214084DA097F843307B7607F10C0197F846300E22C9
S214084DB01846064B9847034687F84730E8E100BF91
S214084DC0E56A0A00E823072031A3090005B80900A8
S214084DD054260720CE4BD3F888303B6497F84030EB
S214084DE0BB7397F84130FB7397F842303B7497F8DB
S214084DF043307B74C64BD3F88C303B6497F840300E
S214084E00BB7497F84130FB7497F842303B7597F8B7
S214084E1043307B75BE4BD3F8A4303B6497F84030DC
S214084E20BB7597F84130FB7597F842303B7697F894
S214084E3043307B7607F10C0197F846300E22184669
S214084E40B44B9847034687F84730A1E1B04B5B6EF2
S214084E503B6497F84030BB7397F84130FB7397F87C
S214084E6042303B7497F843307B74A94B1B6E3B6407
S214084E7097F84030BB7497F84130FB7497F8423087
S214084E803B7597F843307B75A14B9B693B6497F855
S214084E904030BB7597F84130FB7597F842303B7643
S214084EA097F843307B7607F10C0197F846300E22C8
S214084EB01846984B9847034687F8473068E1944B5E
S214084EC09B6E3B6497F84030BB7397F84130FB7392
S214084ED097F842303B7497F843307B748C4BDB6E04
S214084EE03B6497F84030BB7497F84130FB7497F8EA
S214084EF042303B7597F843307B75C8233B6497F878
S214084F004030BB7597F84130FB7597F842303B76D2
S214084F1097F843307B7607F10C0197F846300E2257
S214084F2018467C4B9847034687F8473030E1784B5D
S214084F30DB6A3B6497F84030BB7397F84130FB73E5
S214084F4097F842303B7497F843307B74704B9B69F4
S214084F503B6497F84030BB7497F84130FB7497F879
S214084F6042303B7597F843307B75694B5B693B6409
S214084F7097F84030BB7597F84130FB7597F8423084
S214084F803B7697F843307B76614B5B6B3B6497F8D0
S214084F904030BB7697F84130FB7697F842303B773F
S214084FA097F843307B775A4B1B6B3B6497F8403037
S214084FB0BB7797F84130FB7797F8423087F8203070
S214084FC097F8433087F82130514B1B6D3B6497F8B0
S214084FD0403087F8223097F8413087F8233097F822
S214084FE0423087F8243097F8433087F82530484B06
S214084FF0DB6D3B6497F8403087F8263097F84130E9
S21408500087F8273097F8423087F8283097F84330E3
S21408501087F829303E4B5B6D3B6497F8403087F83D
S2140850202A3097F8413087F82B3097F8423087F8BF
S2140850302C3097F8433087F82D30354BDB693B64C6
S21408504097F8403087F82E3097F8413087F82F3099
S21408505097F8423087F8303097F8433087F8313081
S2140850602B4B9B6B3B6497F8403087F8323097F8A9
S214085070413087F8333097F8423087F8343097F85D
S214085080433087F8353007F10C0197F846302A2266
S2140850901846204B9847034687F8473078E01C4B5D
S2140850A01B6F3B6497F84030BB7397F84130FB732F
S2140850B097F842303B7497F843307B74144B5B6F19
S2140850C03B6497F84030BB7497F84130FB7497F808
S2140850D042303B7597F843307B754FF4C8733B6492
S2140850E097F84030BB7597F84130FB7597F8423013
S2140850F03B7697F843307B7607F10C0197F84630F5
S2140851000E221846034B9847034687F847303FE079
S2140851105426072005B809009B4BD3F890303B640B
S21408512097F84030BB7397F84130FB7397F84230D6
S2140851303B7497F843307B74934BD3F894303B64B6
S21408514097F84030BB7497F84130FB7497F84230B4
S2140851503B7597F843307B754FF4FA733B6497F8C2
S2140851604030BB7597F84130FB7597F842303B7670
S21408517097F843307B7607F10C0197F846300E22F5
S2140851801846824B9847034687F8473000E000BF2A
S21408519001E000BFEFE000BFEDE07D4B1B7E002B7B
S2140851A000F0EB807A4B1B79122B00D0E0E0784BAE
S2140851B05B79252B18D8764B5B797B73744B9B7978
S2140851C087F84030724BDB7987F84130704B1B7A92
S2140851D087F842306E4B5B7A87F843307B7B1946FC
S2140851E03B6C694A42F82130694B5B79053B202BBA
S2140851F000F2BC8001A252F823F000BF81520800DA
S214085200895208006D5308006D5308006D53080056
S2140852106D5308009152080099520800A9520800D8
S2140852206D5308006D5308006D5308006D53080051
S2140852306D5308006D5308006D530800B1520800FE
S2140852406D5308006D530800B9520800C95208008B
S214085250D9520800E9520800F95208000953080014
S2140852606D5308006D5308006D5308006D53080011
S21408527021530800335308004553080055530800C7
S2140852803B6C414A536172E03B6C3F4A93616EE067
S2140852903B6C3D4AD3626AE03B6C3E4AA2FB032362
S2140852A0DB08394A136362E03B6C374A53635EE0B7
S2140852B03B6C354A53655AE03A6C374B104698476C
S2140852C00246364B9A6452E03A6C334B104698477F
S2140852D00246324BDA644AE03A6C2F4B104698473F
S2140852E002462E4B5A6342E03A6C2B4B10469847C0
S2140852F002462A4B1A633AE03A6C274B1046984700
S2140853000246264B5A6132E03B6C254AA2FB032331
S2140853105A09214B104698470246204B1A6126E048
S2140853203B6C1C4AA2FB0323DB081AB21B4B1A80F1
S2140853301DE03B6C174AA2FB0323DB081AB2174B87
S2140853405A8014E03A6C144B104698470246134BA2
S214085350DA600CE03B6C124AA2FB03235A090E4B98
S2140853601046984702460D4B9A6000E000BF00BF03
S21408537003E000BF02E000BF00E000BF00231846BD
S2140853804837BD4680BD00BF5426072005B809002B
S214085390E8230720CDCCCCCCE1640A00F420072013
S2140853A01F85EB5180B400AF2A4B00221A602A4BA7
S2140853B000221A60294B00221A60294B00221A6024
S2140853C0284B00221A60284B00221A70274B00220E
S2140853D01A70274B00221A80264B00221A80264B6A
S2140853E000221A80254B00221A80254B00221A809C
S2140853F0244B00221A70244B01221A70234B0022D9
S2140854001A60234B4FF000021A60224B4FF000023E
S2140854101A60214B4FF000021A60204B4FF0000232
S2140854201A601F4B4FF000021A601E4B4FF0000226
S2140854301A601D4B4FF000021A601C4B4FF000021A
S2140854401A601B4B4FF000021A6000231846BD4630
S21408545080BC7047281907202C1907203019072008
S21408546034190720381907203C1907203D1907204A
S2140854706C2107203E1907204019072068210720BD
S2140854806E210720421907204319072044190720D0
S214085490481907204C1907205019072054190720C7
S2140854A0581907205C190720601907206419072077
S2140854B06819072080B598B000AF0346FB71002333
S2140854C087F84F30002387F85F30002387F85E3070
S2140854D0002387F84E30002387F84D300023A7F8BE
S2140854E05C3007F1440300221A605A60512387F89B
S2140854F05B30002387F85A300023A7F8583007F1A6
S214085500380300221A601A7107F14F02FB79114618
S2140855101846B84B9847034687F8573097F84F30E1
S214085520113B4B2B00F2A38101A252F823F000BFD7
S2140855306F5808006F580800615608006F58080032
S2140855406F5808006F5808006F5808006F58080012
S2140855506F5808006F5808006F5808006F58080002
S2140855605957080029570800415708007956080077
S214085570B95608001F5708006F5608006F580800ED
S2140855806F5808006F5808006F5808006F580800D2
S2140855906F5808006F5808006F5808006F580800C2
S2140855A06F5808006F5808006F5808006F580800B2
S2140855B06F5808006F5808006F5808006F580800A2
S2140855C06F5808006F5808006F5808006F58080092
S2140855D06F5808006F5808006F5808006F58080082
S2140855E06F5808006F5808006F5808006F58080072
S2140855F06F5808006F5808006F5808006F58080062
S2140856006F5808006F5808006F5808006F58080051
S2140856106F5808006F5808006F5808006F58080041
S2140856206F5808006F5808006F5808006F58080031
S2140856306F5808006F5808006F5808006F58080021
S2140856406F5808006F5808006F5808006F58080011
S2140856506F5808006F580800975708001558080034
S2140856600220654B9847034687F857300AE1002121
S2140856700720624B984705E1614B1B7E002B00F024
S214085680F8805F4B1B7987F834305D4B5B7987F879
S21408569035305B4B9B7987F83630594BDB7987F882
S2140856A03730BB8E1A46574BDA61564BDB691946BC
S2140856B00620524B9847DCE0514B1B7E002B00F02F
S2140856C0DA804F4B5B7987F830304D4B9B7987F8FB
S2140856D031304B4BDB7987F83230494B1B7A87F8E9
S2140856E03330474B1B79012B04D100210120434B53
S2140856F09847C0E0424B1B79022B04D100210420B6
S2140857003E4B9847B7E03E4B1B79002B40F0B380E2
S2140857103C4BDB6919460A20384B9847ABE000211A
S2140857200920364B9847ADE000210220364B9847B3
S21408573001210120354B9847034687F85730A1E0EA
S21408574000210420304B9847002101202F4B984712
S214085750034687F8573095E0294B1B7E002B00F050
S2140857608C80274B1B7987F82C30254B5B7987F87C
S2140857702D30234B9B7987F82E30214BDB7987F821
S2140857802F30BB8D194601201F4B9847BB8D1A46F4
S2140857901C4BDA6571E01B4BDB6BB3F5E17F6ED80B
S2140857A0184BDB6B0A33174AD363164BDB6B194669
S2140857B00120154B98470F2387F83830114BDB6BC1
S2140857C03B6497F8403087F8393097F8413087F8C7
S2140857D03A3097F8423087F83B3097F8433087F8E6
S2140857E03C3007F13803052219462A20084B98470B
S2140857F045E000BFC5670800A13208006138090007
S214085800E8230720542607206D310900E12D0800FB
S21408581005B80900BA4BDB6B632B32D9B84BDB6B88
S2140858200A3BB74AD363B64BDB6B19460120B54B28
S21408583098470F2387F83830B14BDB6B3B6497F8F3
S214085840403087F8393097F8413087F83A3097F87B
S214085850423087F83B3097F8433087F83C3007F1FA
S2140858603803052219462A20A74B984709E000BFA7
S21408587008E000BF06E000BF04E000BF02E000BF8B
S21408588000E000BF97F84F30132B15D10C209F4B24
S2140858909847034687F857300E209C4B9847034690
S2140858A087F857300D20994B9847034687F85730A6
S2140858B0974B1A78974B1A70954B1B780A2B00F261
S2140858C0758701A252F823F0F5580800AD6708005E
